{
  "contractName": "FastyToken",
  "abi": [
    {
      "inputs": [
        {
          "internalType": "string",
          "name": "_name",
          "type": "string"
        },
        {
          "internalType": "string",
          "name": "_symbol",
          "type": "string"
        }
      ],
      "payable": false,
      "stateMutability": "nonpayable",
      "type": "constructor"
    },
    {
      "anonymous": false,
      "inputs": [
        {
          "indexed": true,
          "internalType": "address",
          "name": "owner",
          "type": "address"
        },
        {
          "indexed": true,
          "internalType": "address",
          "name": "approved",
          "type": "address"
        },
        {
          "indexed": true,
          "internalType": "uint256",
          "name": "tokenId",
          "type": "uint256"
        }
      ],
      "name": "Approval",
      "type": "event"
    },
    {
      "anonymous": false,
      "inputs": [
        {
          "indexed": true,
          "internalType": "address",
          "name": "owner",
          "type": "address"
        },
        {
          "indexed": true,
          "internalType": "address",
          "name": "operator",
          "type": "address"
        },
        {
          "indexed": false,
          "internalType": "bool",
          "name": "approved",
          "type": "bool"
        }
      ],
      "name": "ApprovalForAll",
      "type": "event"
    },
    {
      "anonymous": false,
      "inputs": [
        {
          "indexed": true,
          "internalType": "address",
          "name": "account",
          "type": "address"
        }
      ],
      "name": "OperatorAdded",
      "type": "event"
    },
    {
      "anonymous": false,
      "inputs": [
        {
          "indexed": true,
          "internalType": "address",
          "name": "account",
          "type": "address"
        }
      ],
      "name": "OperatorRemoved",
      "type": "event"
    },
    {
      "anonymous": false,
      "inputs": [
        {
          "indexed": false,
          "internalType": "address",
          "name": "operator",
          "type": "address"
        },
        {
          "indexed": true,
          "internalType": "uint128",
          "name": "orderId",
          "type": "uint128"
        }
      ],
      "name": "OrderCancelled",
      "type": "event"
    },
    {
      "anonymous": false,
      "inputs": [
        {
          "indexed": false,
          "internalType": "address",
          "name": "operator",
          "type": "address"
        },
        {
          "indexed": true,
          "internalType": "uint128",
          "name": "orderId",
          "type": "uint128"
        }
      ],
      "name": "OrderCreate",
      "type": "event"
    },
    {
      "anonymous": false,
      "inputs": [
        {
          "indexed": false,
          "internalType": "address",
          "name": "operator",
          "type": "address"
        },
        {
          "indexed": true,
          "internalType": "uint128",
          "name": "orderId",
          "type": "uint128"
        }
      ],
      "name": "OrderFulfilled",
      "type": "event"
    },
    {
      "anonymous": false,
      "inputs": [
        {
          "indexed": false,
          "internalType": "address",
          "name": "holder",
          "type": "address"
        },
        {
          "indexed": true,
          "internalType": "uint128",
          "name": "orderId",
          "type": "uint128"
        }
      ],
      "name": "OrderHolding",
      "type": "event"
    },
    {
      "anonymous": false,
      "inputs": [
        {
          "indexed": false,
          "internalType": "address",
          "name": "operator",
          "type": "address"
        },
        {
          "indexed": true,
          "internalType": "uint128",
          "name": "orderId",
          "type": "uint128"
        }
      ],
      "name": "OrderUpdate",
      "type": "event"
    },
    {
      "anonymous": false,
      "inputs": [
        {
          "indexed": true,
          "internalType": "address",
          "name": "previousOwner",
          "type": "address"
        },
        {
          "indexed": true,
          "internalType": "address",
          "name": "newOwner",
          "type": "address"
        }
      ],
      "name": "OwnershipTransferred",
      "type": "event"
    },
    {
      "anonymous": false,
      "inputs": [
        {
          "indexed": false,
          "internalType": "address",
          "name": "account",
          "type": "address"
        }
      ],
      "name": "Paused",
      "type": "event"
    },
    {
      "anonymous": false,
      "inputs": [
        {
          "indexed": false,
          "internalType": "address",
          "name": "operator",
          "type": "address"
        },
        {
          "indexed": false,
          "internalType": "address",
          "name": "from",
          "type": "address"
        },
        {
          "indexed": false,
          "internalType": "uint256",
          "name": "tokenId",
          "type": "uint256"
        },
        {
          "indexed": false,
          "internalType": "bytes",
          "name": "data",
          "type": "bytes"
        },
        {
          "indexed": false,
          "internalType": "uint256",
          "name": "gas",
          "type": "uint256"
        }
      ],
      "name": "Received",
      "type": "event"
    },
    {
      "anonymous": false,
      "inputs": [
        {
          "indexed": false,
          "internalType": "address",
          "name": "receiver",
          "type": "address"
        },
        {
          "indexed": false,
          "internalType": "uint128",
          "name": "orderId",
          "type": "uint128"
        },
        {
          "indexed": false,
          "internalType": "address",
          "name": "currency",
          "type": "address"
        },
        {
          "indexed": false,
          "internalType": "uint256",
          "name": "amount",
          "type": "uint256"
        }
      ],
      "name": "Refund",
      "type": "event"
    },
    {
      "anonymous": false,
      "inputs": [
        {
          "indexed": false,
          "internalType": "address",
          "name": "operator",
          "type": "address"
        },
        {
          "indexed": false,
          "internalType": "uint128",
          "name": "feeId",
          "type": "uint128"
        }
      ],
      "name": "SystemFeeCreate",
      "type": "event"
    },
    {
      "anonymous": false,
      "inputs": [
        {
          "indexed": true,
          "internalType": "address",
          "name": "from",
          "type": "address"
        },
        {
          "indexed": true,
          "internalType": "address",
          "name": "to",
          "type": "address"
        },
        {
          "indexed": true,
          "internalType": "uint256",
          "name": "tokenId",
          "type": "uint256"
        }
      ],
      "name": "Transfer",
      "type": "event"
    },
    {
      "anonymous": false,
      "inputs": [
        {
          "indexed": false,
          "internalType": "address",
          "name": "account",
          "type": "address"
        }
      ],
      "name": "Unpaused",
      "type": "event"
    },
    {
      "anonymous": false,
      "inputs": [
        {
          "indexed": true,
          "internalType": "address",
          "name": "account",
          "type": "address"
        }
      ],
      "name": "WhitelistAdded",
      "type": "event"
    },
    {
      "anonymous": false,
      "inputs": [
        {
          "indexed": true,
          "internalType": "address",
          "name": "account",
          "type": "address"
        }
      ],
      "name": "WhitelistRemoved",
      "type": "event"
    },
    {
      "constant": true,
      "inputs": [],
      "name": "SYSTEM_FEE_COEFF",
      "outputs": [
        {
          "internalType": "uint256",
          "name": "",
          "type": "uint256"
        }
      ],
      "payable": false,
      "stateMutability": "view",
      "type": "function"
    },
    {
      "constant": false,
      "inputs": [
        {
          "internalType": "address",
          "name": "_account",
          "type": "address"
        }
      ],
      "name": "addOperator",
      "outputs": [],
      "payable": false,
      "stateMutability": "nonpayable",
      "type": "function"
    },
    {
      "constant": false,
      "inputs": [
        {
          "internalType": "address",
          "name": "_account",
          "type": "address"
        }
      ],
      "name": "addWhitelist",
      "outputs": [],
      "payable": false,
      "stateMutability": "nonpayable",
      "type": "function"
    },
    {
      "constant": false,
      "inputs": [
        {
          "internalType": "address",
          "name": "to",
          "type": "address"
        },
        {
          "internalType": "uint256",
          "name": "tokenId",
          "type": "uint256"
        }
      ],
      "name": "approve",
      "outputs": [],
      "payable": false,
      "stateMutability": "nonpayable",
      "type": "function"
    },
    {
      "constant": true,
      "inputs": [
        {
          "internalType": "address",
          "name": "owner",
          "type": "address"
        }
      ],
      "name": "balanceOf",
      "outputs": [
        {
          "internalType": "uint256",
          "name": "",
          "type": "uint256"
        }
      ],
      "payable": false,
      "stateMutability": "view",
      "type": "function"
    },
    {
      "constant": true,
      "inputs": [],
      "name": "baseURI",
      "outputs": [
        {
          "internalType": "string",
          "name": "",
          "type": "string"
        }
      ],
      "payable": false,
      "stateMutability": "view",
      "type": "function"
    },
    {
      "constant": true,
      "inputs": [
        {
          "internalType": "uint256",
          "name": "tokenId",
          "type": "uint256"
        }
      ],
      "name": "getApproved",
      "outputs": [
        {
          "internalType": "address",
          "name": "",
          "type": "address"
        }
      ],
      "payable": false,
      "stateMutability": "view",
      "type": "function"
    },
    {
      "constant": true,
      "inputs": [
        {
          "internalType": "address",
          "name": "owner",
          "type": "address"
        },
        {
          "internalType": "address",
          "name": "operator",
          "type": "address"
        }
      ],
      "name": "isApprovedForAll",
      "outputs": [
        {
          "internalType": "bool",
          "name": "",
          "type": "bool"
        }
      ],
      "payable": false,
      "stateMutability": "view",
      "type": "function"
    },
    {
      "constant": true,
      "inputs": [
        {
          "internalType": "address",
          "name": "_account",
          "type": "address"
        }
      ],
      "name": "isOperator",
      "outputs": [
        {
          "internalType": "bool",
          "name": "",
          "type": "bool"
        }
      ],
      "payable": false,
      "stateMutability": "view",
      "type": "function"
    },
    {
      "constant": true,
      "inputs": [],
      "name": "isOwner",
      "outputs": [
        {
          "internalType": "bool",
          "name": "",
          "type": "bool"
        }
      ],
      "payable": false,
      "stateMutability": "view",
      "type": "function"
    },
    {
      "constant": true,
      "inputs": [
        {
          "internalType": "address",
          "name": "_account",
          "type": "address"
        }
      ],
      "name": "isWhitelist",
      "outputs": [
        {
          "internalType": "bool",
          "name": "",
          "type": "bool"
        }
      ],
      "payable": false,
      "stateMutability": "view",
      "type": "function"
    },
    {
      "constant": true,
      "inputs": [],
      "name": "name",
      "outputs": [
        {
          "internalType": "string",
          "name": "",
          "type": "string"
        }
      ],
      "payable": false,
      "stateMutability": "view",
      "type": "function"
    },
    {
      "constant": true,
      "inputs": [],
      "name": "owner",
      "outputs": [
        {
          "internalType": "address",
          "name": "",
          "type": "address"
        }
      ],
      "payable": false,
      "stateMutability": "view",
      "type": "function"
    },
    {
      "constant": true,
      "inputs": [
        {
          "internalType": "uint256",
          "name": "tokenId",
          "type": "uint256"
        }
      ],
      "name": "ownerOf",
      "outputs": [
        {
          "internalType": "address",
          "name": "",
          "type": "address"
        }
      ],
      "payable": false,
      "stateMutability": "view",
      "type": "function"
    },
    {
      "constant": false,
      "inputs": [],
      "name": "pause",
      "outputs": [],
      "payable": false,
      "stateMutability": "nonpayable",
      "type": "function"
    },
    {
      "constant": true,
      "inputs": [],
      "name": "paused",
      "outputs": [
        {
          "internalType": "bool",
          "name": "",
          "type": "bool"
        }
      ],
      "payable": false,
      "stateMutability": "view",
      "type": "function"
    },
    {
      "constant": false,
      "inputs": [
        {
          "internalType": "address",
          "name": "_account",
          "type": "address"
        }
      ],
      "name": "removeOperator",
      "outputs": [],
      "payable": false,
      "stateMutability": "nonpayable",
      "type": "function"
    },
    {
      "constant": false,
      "inputs": [
        {
          "internalType": "address",
          "name": "_account",
          "type": "address"
        }
      ],
      "name": "removeWhitelist",
      "outputs": [],
      "payable": false,
      "stateMutability": "nonpayable",
      "type": "function"
    },
    {
      "constant": false,
      "inputs": [],
      "name": "renounceOperator",
      "outputs": [],
      "payable": false,
      "stateMutability": "nonpayable",
      "type": "function"
    },
    {
      "constant": false,
      "inputs": [],
      "name": "renounceOwnership",
      "outputs": [],
      "payable": false,
      "stateMutability": "nonpayable",
      "type": "function"
    },
    {
      "constant": false,
      "inputs": [],
      "name": "renounceWhitelist",
      "outputs": [],
      "payable": false,
      "stateMutability": "nonpayable",
      "type": "function"
    },
    {
      "constant": false,
      "inputs": [
        {
          "internalType": "address",
          "name": "from",
          "type": "address"
        },
        {
          "internalType": "address",
          "name": "to",
          "type": "address"
        },
        {
          "internalType": "uint256",
          "name": "tokenId",
          "type": "uint256"
        }
      ],
      "name": "safeTransferFrom",
      "outputs": [],
      "payable": false,
      "stateMutability": "nonpayable",
      "type": "function"
    },
    {
      "constant": false,
      "inputs": [
        {
          "internalType": "address",
          "name": "from",
          "type": "address"
        },
        {
          "internalType": "address",
          "name": "to",
          "type": "address"
        },
        {
          "internalType": "uint256",
          "name": "tokenId",
          "type": "uint256"
        },
        {
          "internalType": "bytes",
          "name": "_data",
          "type": "bytes"
        }
      ],
      "name": "safeTransferFrom",
      "outputs": [],
      "payable": false,
      "stateMutability": "nonpayable",
      "type": "function"
    },
    {
      "constant": false,
      "inputs": [
        {
          "internalType": "address",
          "name": "to",
          "type": "address"
        },
        {
          "internalType": "bool",
          "name": "approved",
          "type": "bool"
        }
      ],
      "name": "setApprovalForAll",
      "outputs": [],
      "payable": false,
      "stateMutability": "nonpayable",
      "type": "function"
    },
    {
      "constant": true,
      "inputs": [
        {
          "internalType": "bytes4",
          "name": "interfaceId",
          "type": "bytes4"
        }
      ],
      "name": "supportsInterface",
      "outputs": [
        {
          "internalType": "bool",
          "name": "",
          "type": "bool"
        }
      ],
      "payable": false,
      "stateMutability": "view",
      "type": "function"
    },
    {
      "constant": true,
      "inputs": [],
      "name": "symbol",
      "outputs": [
        {
          "internalType": "string",
          "name": "",
          "type": "string"
        }
      ],
      "payable": false,
      "stateMutability": "view",
      "type": "function"
    },
    {
      "constant": true,
      "inputs": [
        {
          "internalType": "uint256",
          "name": "index",
          "type": "uint256"
        }
      ],
      "name": "tokenByIndex",
      "outputs": [
        {
          "internalType": "uint256",
          "name": "",
          "type": "uint256"
        }
      ],
      "payable": false,
      "stateMutability": "view",
      "type": "function"
    },
    {
      "constant": true,
      "inputs": [
        {
          "internalType": "uint256",
          "name": "tokenId",
          "type": "uint256"
        }
      ],
      "name": "tokenURI",
      "outputs": [
        {
          "internalType": "string",
          "name": "",
          "type": "string"
        }
      ],
      "payable": false,
      "stateMutability": "view",
      "type": "function"
    },
    {
      "constant": true,
      "inputs": [],
      "name": "totalSupply",
      "outputs": [
        {
          "internalType": "uint256",
          "name": "",
          "type": "uint256"
        }
      ],
      "payable": false,
      "stateMutability": "view",
      "type": "function"
    },
    {
      "constant": false,
      "inputs": [
        {
          "internalType": "address",
          "name": "from",
          "type": "address"
        },
        {
          "internalType": "address",
          "name": "to",
          "type": "address"
        },
        {
          "internalType": "uint256",
          "name": "tokenId",
          "type": "uint256"
        }
      ],
      "name": "transferFrom",
      "outputs": [],
      "payable": false,
      "stateMutability": "nonpayable",
      "type": "function"
    },
    {
      "constant": false,
      "inputs": [
        {
          "internalType": "address",
          "name": "newOwner",
          "type": "address"
        }
      ],
      "name": "transferOwnership",
      "outputs": [],
      "payable": false,
      "stateMutability": "nonpayable",
      "type": "function"
    },
    {
      "constant": false,
      "inputs": [],
      "name": "unpause",
      "outputs": [],
      "payable": false,
      "stateMutability": "nonpayable",
      "type": "function"
    },
    {
      "constant": true,
      "inputs": [
        {
          "internalType": "uint128",
          "name": "id",
          "type": "uint128"
        }
      ],
      "name": "getProductDetail",
      "outputs": [
        {
          "internalType": "uint128",
          "name": "productId",
          "type": "uint128"
        },
        {
          "internalType": "bytes32",
          "name": "lname",
          "type": "bytes32"
        },
        {
          "internalType": "address",
          "name": "owner",
          "type": "address"
        }
      ],
      "payable": false,
      "stateMutability": "view",
      "type": "function"
    },
    {
      "constant": true,
      "inputs": [
        {
          "internalType": "uint128",
          "name": "id",
          "type": "uint128"
        }
      ],
      "name": "hasExistentToken",
      "outputs": [
        {
          "internalType": "bool",
          "name": "",
          "type": "bool"
        }
      ],
      "payable": false,
      "stateMutability": "view",
      "type": "function"
    },
    {
      "constant": false,
      "inputs": [
        {
          "internalType": "address",
          "name": "_owner",
          "type": "address"
        },
        {
          "internalType": "uint128[]",
          "name": "_ids",
          "type": "uint128[]"
        },
        {
          "internalType": "bytes32[]",
          "name": "_names",
          "type": "bytes32[]"
        }
      ],
      "name": "issueNewProducts",
      "outputs": [],
      "payable": false,
      "stateMutability": "nonpayable",
      "type": "function"
    },
    {
      "constant": true,
      "inputs": [
        {
          "internalType": "uint128",
          "name": "_orderId",
          "type": "uint128"
        }
      ],
      "name": "getOrderDetails",
      "outputs": [
        {
          "internalType": "uint128",
          "name": "id",
          "type": "uint128"
        },
        {
          "internalType": "uint128[]",
          "name": "productIds",
          "type": "uint128[]"
        },
        {
          "internalType": "address",
          "name": "maker",
          "type": "address"
        },
        {
          "internalType": "address",
          "name": "taker",
          "type": "address"
        },
        {
          "internalType": "address[]",
          "name": "offeredCurrencies",
          "type": "address[]"
        },
        {
          "internalType": "uint256[]",
          "name": "offeredAmounts",
          "type": "uint256[]"
        },
        {
          "internalType": "address",
          "name": "fulfilledCurrency",
          "type": "address"
        },
        {
          "internalType": "uint256",
          "name": "fulfilledAmount",
          "type": "uint256"
        },
        {
          "internalType": "enum FastyToken.OrderType",
          "name": "otype",
          "type": "uint8"
        },
        {
          "internalType": "enum FastyToken.OrderStatus",
          "name": "status",
          "type": "uint8"
        }
      ],
      "payable": false,
      "stateMutability": "view",
      "type": "function"
    },
    {
      "constant": true,
      "inputs": [
        {
          "internalType": "uint128",
          "name": "_orderId",
          "type": "uint128"
        }
      ],
      "name": "getOrderSystemFeeId",
      "outputs": [
        {
          "internalType": "uint128",
          "name": "feeId",
          "type": "uint128"
        }
      ],
      "payable": false,
      "stateMutability": "view",
      "type": "function"
    },
    {
      "constant": true,
      "inputs": [
        {
          "internalType": "uint128",
          "name": "_orderId",
          "type": "uint128"
        }
      ],
      "name": "hasExistentOrder",
      "outputs": [
        {
          "internalType": "bool",
          "name": "",
          "type": "bool"
        }
      ],
      "payable": false,
      "stateMutability": "view",
      "type": "function"
    },
    {
      "constant": false,
      "inputs": [
        {
          "internalType": "uint128",
          "name": "_orderId",
          "type": "uint128"
        },
        {
          "internalType": "uint128[]",
          "name": "_ids",
          "type": "uint128[]"
        },
        {
          "internalType": "bytes32[]",
          "name": "_names",
          "type": "bytes32[]"
        },
        {
          "internalType": "address[]",
          "name": "_offeredCurrencies",
          "type": "address[]"
        },
        {
          "internalType": "uint256[]",
          "name": "_offeredAmounts",
          "type": "uint256[]"
        },
        {
          "internalType": "uint128",
          "name": "_feeId",
          "type": "uint128"
        }
      ],
      "name": "issueAndCreateManyProductsOrder",
      "outputs": [],
      "payable": false,
      "stateMutability": "nonpayable",
      "type": "function"
    },
    {
      "constant": false,
      "inputs": [
        {
          "internalType": "uint128",
          "name": "_orderId",
          "type": "uint128"
        },
        {
          "internalType": "uint128",
          "name": "_productId",
          "type": "uint128"
        },
        {
          "internalType": "address[]",
          "name": "_offeredCurrencies",
          "type": "address[]"
        },
        {
          "internalType": "uint256[]",
          "name": "_offeredAmounts",
          "type": "uint256[]"
        },
        {
          "internalType": "uint128",
          "name": "_feeId",
          "type": "uint128"
        }
      ],
      "name": "createSingleProductOrder",
      "outputs": [],
      "payable": false,
      "stateMutability": "nonpayable",
      "type": "function"
    },
    {
      "constant": false,
      "inputs": [
        {
          "internalType": "uint128",
          "name": "_orderId",
          "type": "uint128"
        },
        {
          "internalType": "address[]",
          "name": "_offeredCurrencies",
          "type": "address[]"
        },
        {
          "internalType": "uint256[]",
          "name": "_offeredAmounts",
          "type": "uint256[]"
        },
        {
          "internalType": "uint128",
          "name": "_feeId",
          "type": "uint128"
        }
      ],
      "name": "updateOrder",
      "outputs": [],
      "payable": false,
      "stateMutability": "nonpayable",
      "type": "function"
    },
    {
      "constant": false,
      "inputs": [
        {
          "internalType": "uint128",
          "name": "_orderId",
          "type": "uint128"
        }
      ],
      "name": "cancelOrder",
      "outputs": [],
      "payable": false,
      "stateMutability": "nonpayable",
      "type": "function"
    },
    {
      "constant": false,
      "inputs": [
        {
          "internalType": "uint128",
          "name": "_orderId",
          "type": "uint128"
        }
      ],
      "name": "takeOrderByEther",
      "outputs": [],
      "payable": true,
      "stateMutability": "payable",
      "type": "function"
    },
    {
      "constant": false,
      "inputs": [
        {
          "internalType": "uint128",
          "name": "_orderId",
          "type": "uint128"
        },
        {
          "internalType": "address",
          "name": "_taker",
          "type": "address"
        },
        {
          "internalType": "address",
          "name": "_currency",
          "type": "address"
        },
        {
          "internalType": "uint256",
          "name": "_amount",
          "type": "uint256"
        },
        {
          "internalType": "string",
          "name": "_txid",
          "type": "string"
        }
      ],
      "name": "completeOrder",
      "outputs": [],
      "payable": false,
      "stateMutability": "nonpayable",
      "type": "function"
    },
    {
      "constant": true,
      "inputs": [
        {
          "internalType": "uint128",
          "name": "_feeId",
          "type": "uint128"
        }
      ],
      "name": "getSystemFee",
      "outputs": [
        {
          "internalType": "uint128",
          "name": "feeId",
          "type": "uint128"
        },
        {
          "internalType": "uint256",
          "name": "fastyFee",
          "type": "uint256"
        }
      ],
      "payable": false,
      "stateMutability": "view",
      "type": "function"
    },
    {
      "constant": false,
      "inputs": [
        {
          "internalType": "uint128",
          "name": "_feeId",
          "type": "uint128"
        },
        {
          "internalType": "uint256",
          "name": "_fastyFee",
          "type": "uint256"
        }
      ],
      "name": "setNewSystemFee",
      "outputs": [],
      "payable": false,
      "stateMutability": "nonpayable",
      "type": "function"
    },
    {
      "constant": false,
      "inputs": [
        {
          "internalType": "uint128",
          "name": "_orderId",
          "type": "uint128"
        },
        {
          "internalType": "address",
          "name": "_recepient",
          "type": "address"
        },
        {
          "internalType": "address",
          "name": "_currency",
          "type": "address"
        },
        {
          "internalType": "uint256",
          "name": "_amount",
          "type": "uint256"
        }
      ],
      "name": "refund",
      "outputs": [],
      "payable": false,
      "stateMutability": "nonpayable",
      "type": "function"
    },
    {
      "constant": false,
      "inputs": [
        {
          "internalType": "uint256",
          "name": "tokenId",
          "type": "uint256"
        },
        {
          "internalType": "string",
          "name": "_tokenURI",
          "type": "string"
        }
      ],
      "name": "setTokenURI",
      "outputs": [],
      "payable": false,
      "stateMutability": "nonpayable",
      "type": "function"
    },
    {
      "constant": false,
      "inputs": [
        {
          "internalType": "string",
          "name": "baseURI",
          "type": "string"
        }
      ],
      "name": "setBaseURI",
      "outputs": [],
      "payable": false,
      "stateMutability": "nonpayable",
      "type": "function"
    }
  ],
  "bytecode": "0x60806040523480156200001157600080fd5b50604051620097cc380380620097cc833981810160405260408110156200003757600080fd5b81019080805160405193929190846401000000008211156200005857600080fd5b838201915060208201858111156200006f57600080fd5b82518660018202830111640100000000821117156200008d57600080fd5b8083526020830192505050908051906020019080838360005b83811015620000c3578082015181840152602081019050620000a6565b50505050905090810190601f168015620000f15780820380516001836020036101000a031916815260200191505b50604052602001805160405193929190846401000000008211156200011557600080fd5b838201915060208201858111156200012c57600080fd5b82518660018202830111640100000000821117156200014a57600080fd5b8083526020830192505050908051906020019080838360005b838110156200018057808201518184015260208101905062000163565b50505050905090810190601f168015620001ae5780820380516001836020036101000a031916815260200191505b5060405250505081818181620001d16301ffc9a760e01b6200033660201b60201c565b620001e96380ac58cd60e01b6200033660201b60201c565b6200020163780e9d6360e01b6200033660201b60201c565b816007908051906020019062000219929190620006c5565b50806008908051906020019062000232929190620006c5565b506200024b635b5e139f60e01b6200033660201b60201c565b5050600033905080600b60006101000a81548173ffffffffffffffffffffffffffffffffffffffff021916908373ffffffffffffffffffffffffffffffffffffffff1602179055508073ffffffffffffffffffffffffffffffffffffffff16600073ffffffffffffffffffffffffffffffffffffffff167f8be0079c531659141344cd1fd0a4f28419497f9722a3daafe3b4186f6b6457e060405160405180910390a35062000300336200043f60201b60201c565b6000600d60006101000a81548160ff02191690831515021790555050506200032e30620004a060201b60201c565b505062000774565b63ffffffff60e01b817bffffffffffffffffffffffffffffffffffffffffffffffffffffffff19161415620003d3576040517f08c379a000000000000000000000000000000000000000000000000000000000815260040180806020018281038252601c8152602001807f4552433136353a20696e76616c696420696e746572666163652069640000000081525060200191505060405180910390fd5b6001600080837bffffffffffffffffffffffffffffffffffffffffffffffffffffffff19167bffffffffffffffffffffffffffffffffffffffffffffffffffffffff1916815260200190815260200160002060006101000a81548160ff02191690831515021790555050565b6200045a81600c6200050160201b62007a9c1790919060201c565b8073ffffffffffffffffffffffffffffffffffffffff167fac6fa858e9350a46cec16539926e0fde25b7629f84b5a72bffaae4df888ae86d60405160405180910390a250565b620004bb81600e6200050160201b62007a9c1790919060201c565b8073ffffffffffffffffffffffffffffffffffffffff167f4790a4adb426ca2345bb5108f6e454eae852a7bf687544cd66a7270dff3a41d660405160405180910390a250565b620005138282620005e560201b60201c565b1562000587576040517f08c379a000000000000000000000000000000000000000000000000000000000815260040180806020018281038252601f8152602001807f526f6c65733a206163636f756e7420616c72656164792068617320726f6c650081525060200191505060405180910390fd5b60018260000160008373ffffffffffffffffffffffffffffffffffffffff1673ffffffffffffffffffffffffffffffffffffffff16815260200190815260200160002060006101000a81548160ff0219169083151502179055505050565b60008073ffffffffffffffffffffffffffffffffffffffff168273ffffffffffffffffffffffffffffffffffffffff1614156200066e576040517f08c379a0000000000000000000000000000000000000000000000000000000008152600401808060200182810382526022815260200180620097aa6022913960400191505060405180910390fd5b8260000160008373ffffffffffffffffffffffffffffffffffffffff1673ffffffffffffffffffffffffffffffffffffffff16815260200190815260200160002060009054906101000a900460ff16905092915050565b828054600181600116156101000203166002900490600052602060002090601f016020900481019282601f106200070857805160ff191683800117855562000739565b8280016001018555821562000739579182015b82811115620007385782518255916020019190600101906200071b565b5b5090506200074891906200074c565b5090565b6200077191905b808211156200076d57600081600090555060010162000753565b5090565b90565b61902680620007846000396000f3fe6080604052600436106102ae5760003560e01c806378c8cda711610175578063b88d4fde116100dc578063dbc9139611610095578063e81398431161006f578063e813984314611a09578063e985e9c514611a6e578063f2fde38b14611af7578063f80f5dd514611b48576102ae565b8063dbc9139614611801578063dc08a6ac1461184e578063dc332cbd1461197d576102ae565b8063b88d4fde1461136e578063be2eed1014611480578063c683630d14611593578063c87b56dd146115fc578063d28bc150146116b0578063da9403cb14611715576102ae565b80639c2f5d701161012e5780639c2f5d7014611139578063a22cb465146111be578063ac19f00b1461121b578063ac8a584a1461125b578063b371c17f146112ac578063b7f16965146112d7576102ae565b806378c8cda714610f6a5780638456cb5914610fbb5780638da5cb5b14610fd25780638f32d59b1461102957806395d89b41146110585780639870d7fe146110e8576102ae565b806342842e0e116102195780636352211e116101d25780636352211e14610b535780636b81367514610bce5780636c0360eb14610df55780636d70f7ae14610e8557806370a0823114610eee578063715018a614610f53576102ae565b806342842e0e1461071c5780634f6ccce71461079757806354ec0e2e146107e657806355f804b3146109a35780635a4f2a0614610a295780635c975abb14610b24576102ae565b806323b872dd1161026b57806323b872dd146105465780632ab6f8db146105c15780633557446d146105d857806339137f8b146106975780633f4ba83a146106ae578063403f75b4146106c5576102ae565b806301ffc9a7146102b357806306fdde0314610325578063081812fc146103b5578063095ea7b314610430578063162094c41461048b57806318160ddd1461051b575b600080fd5b3480156102bf57600080fd5b5061030b600480360360208110156102d657600080fd5b8101908080357bffffffffffffffffffffffffffffffffffffffffffffffffffffffff19169060200190929190505050611b99565b604051808215151515815260200191505060405180910390f35b34801561033157600080fd5b5061033a611c00565b6040518080602001828103825283818151815260200191508051906020019080838360005b8381101561037a57808201518184015260208101905061035f565b50505050905090810190601f1680156103a75780820380516001836020036101000a031916815260200191505b509250505060405180910390f35b3480156103c157600080fd5b506103ee600480360360208110156103d857600080fd5b8101908080359060200190929190505050611c39565b604051808273ffffffffffffffffffffffffffffffffffffffff1673ffffffffffffffffffffffffffffffffffffffff16815260200191505060405180910390f35b34801561043c57600080fd5b506104896004803603604081101561045357600080fd5b81019080803573ffffffffffffffffffffffffffffffffffffffff16906020019092919080359060200190929190505050611cd4565b005b34801561049757600080fd5b50610519600480360360408110156104ae57600080fd5b8101908080359060200190929190803590602001906401000000008111156104d557600080fd5b8201836020820111156104e757600080fd5b8035906020019184600183028401116401000000008311171561050957600080fd5b9091929391929390505050611d65565b005b34801561052757600080fd5b50610530611e32565b6040518082815260200191505060405180910390f35b34801561055257600080fd5b506105bf6004803603606081101561056957600080fd5b81019080803573ffffffffffffffffffffffffffffffffffffffff169060200190929190803573ffffffffffffffffffffffffffffffffffffffff16906020019092919080359060200190929190505050611e3f565b005b3480156105cd57600080fd5b506105d6611eae565b005b3480156105e457600080fd5b50610623600480360360208110156105fb57600080fd5b8101908080356fffffffffffffffffffffffffffffffff169060200190929190505050611eb9565b60405180846fffffffffffffffffffffffffffffffff166fffffffffffffffffffffffffffffffff1681526020018381526020018273ffffffffffffffffffffffffffffffffffffffff1673ffffffffffffffffffffffffffffffffffffffff168152602001935050505060405180910390f35b3480156106a357600080fd5b506106ac611f1f565b005b3480156106ba57600080fd5b506106c3611f2a565b005b3480156106d157600080fd5b5061071a600480360360408110156106e857600080fd5b8101908080356fffffffffffffffffffffffffffffffff169060200190929190803590602001909291905050506120a6565b005b34801561072857600080fd5b506107956004803603606081101561073f57600080fd5b81019080803573ffffffffffffffffffffffffffffffffffffffff169060200190929190803573ffffffffffffffffffffffffffffffffffffffff16906020019092919080359060200190929190505050612447565b005b3480156107a357600080fd5b506107d0600480360360208110156107ba57600080fd5b8101908080359060200190929190505050612467565b6040518082815260200191505060405180910390f35b3480156107f257600080fd5b506109a1600480360360c081101561080957600080fd5b8101908080356fffffffffffffffffffffffffffffffff1690602001909291908035906020019064010000000081111561084257600080fd5b82018360208201111561085457600080fd5b8035906020019184602083028401116401000000008311171561087657600080fd5b90919293919293908035906020019064010000000081111561089757600080fd5b8201836020820111156108a957600080fd5b803590602001918460208302840111640100000000831117156108cb57600080fd5b9091929391929390803590602001906401000000008111156108ec57600080fd5b8201836020820111156108fe57600080fd5b8035906020019184602083028401116401000000008311171561092057600080fd5b90919293919293908035906020019064010000000081111561094157600080fd5b82018360208201111561095357600080fd5b8035906020019184602083028401116401000000008311171561097557600080fd5b909192939192939080356fffffffffffffffffffffffffffffffff1690602001909291905050506124e7565b005b3480156109af57600080fd5b50610a27600480360360208110156109c657600080fd5b81019080803590602001906401000000008111156109e357600080fd5b8201836020820111156109f557600080fd5b80359060200191846001830284011164010000000083111715610a1757600080fd5b90919293919293905050506127d5565b005b348015610a3557600080fd5b50610b2260048036036060811015610a4c57600080fd5b81019080803573ffffffffffffffffffffffffffffffffffffffff16906020019092919080359060200190640100000000811115610a8957600080fd5b820183602082011115610a9b57600080fd5b80359060200191846020830284011164010000000083111715610abd57600080fd5b909192939192939080359060200190640100000000811115610ade57600080fd5b820183602082011115610af057600080fd5b80359060200191846020830284011164010000000083111715610b1257600080fd5b90919293919293905050506128a0565b005b348015610b3057600080fd5b50610b39612a7e565b604051808215151515815260200191505060405180910390f35b348015610b5f57600080fd5b50610b8c60048036036020811015610b7657600080fd5b8101908080359060200190929190505050612a95565b604051808273ffffffffffffffffffffffffffffffffffffffff1673ffffffffffffffffffffffffffffffffffffffff16815260200191505060405180910390f35b348015610bda57600080fd5b50610c1960048036036020811015610bf157600080fd5b8101908080356fffffffffffffffffffffffffffffffff169060200190929190505050612b5d565b604051808b6fffffffffffffffffffffffffffffffff166fffffffffffffffffffffffffffffffff168152602001806020018a73ffffffffffffffffffffffffffffffffffffffff1673ffffffffffffffffffffffffffffffffffffffff1681526020018973ffffffffffffffffffffffffffffffffffffffff1673ffffffffffffffffffffffffffffffffffffffff16815260200180602001806020018873ffffffffffffffffffffffffffffffffffffffff1673ffffffffffffffffffffffffffffffffffffffff168152602001878152602001866001811115610cfb57fe5b60ff168152602001856003811115610d0f57fe5b60ff16815260200184810384528d818151815260200191508051906020019060200280838360005b83811015610d52578082015181840152602081019050610d37565b5050505090500184810383528a818151815260200191508051906020019060200280838360005b83811015610d94578082015181840152602081019050610d79565b50505050905001848103825289818151815260200191508051906020019060200280838360005b83811015610dd6578082015181840152602081019050610dbb565b505050509050019d505050505050505050505050505060405180910390f35b348015610e0157600080fd5b50610e0a612f42565b6040518080602001828103825283818151815260200191508051906020019080838360005b83811015610e4a578082015181840152602081019050610e2f565b50505050905090810190601f168015610e775780820380516001836020036101000a031916815260200191505b509250505060405180910390f35b348015610e9157600080fd5b50610ed460048036036020811015610ea857600080fd5b81019080803573ffffffffffffffffffffffffffffffffffffffff169060200190929190505050612fe4565b604051808215151515815260200191505060405180910390f35b348015610efa57600080fd5b50610f3d60048036036020811015610f1157600080fd5b81019080803573ffffffffffffffffffffffffffffffffffffffff169060200190929190505050613001565b6040518082815260200191505060405180910390f35b348015610f5f57600080fd5b50610f686130d6565b005b348015610f7657600080fd5b50610fb960048036036020811015610f8d57600080fd5b81019080803573ffffffffffffffffffffffffffffffffffffffff169060200190929190505050613211565b005b348015610fc757600080fd5b50610fd0613297565b005b348015610fde57600080fd5b50610fe7613414565b604051808273ffffffffffffffffffffffffffffffffffffffff1673ffffffffffffffffffffffffffffffffffffffff16815260200191505060405180910390f35b34801561103557600080fd5b5061103e61343e565b604051808215151515815260200191505060405180910390f35b34801561106457600080fd5b5061106d613496565b6040518080602001828103825283818151815260200191508051906020019080838360005b838110156110ad578082015181840152602081019050611092565b50505050905090810190601f1680156110da5780820380516001836020036101000a031916815260200191505b509250505060405180910390f35b3480156110f457600080fd5b506111376004803603602081101561110b57600080fd5b81019080803573ffffffffffffffffffffffffffffffffffffffff1690602001909291905050506134cf565b005b34801561114557600080fd5b506111846004803603602081101561115c57600080fd5b8101908080356fffffffffffffffffffffffffffffffff169060200190929190505050613555565b60405180826fffffffffffffffffffffffffffffffff166fffffffffffffffffffffffffffffffff16815260200191505060405180910390f35b3480156111ca57600080fd5b50611219600480360360408110156111e157600080fd5b81019080803573ffffffffffffffffffffffffffffffffffffffff1690602001909291908035151590602001909291905050506135b2565b005b6112596004803603602081101561123157600080fd5b8101908080356fffffffffffffffffffffffffffffffff169060200190929190505050613643565b005b34801561126757600080fd5b506112aa6004803603602081101561127e57600080fd5b81019080803573ffffffffffffffffffffffffffffffffffffffff169060200190929190505050613c0b565b005b3480156112b857600080fd5b506112c1613c91565b6040518082815260200191505060405180910390f35b3480156112e357600080fd5b5061136c600480360360808110156112fa57600080fd5b8101908080356fffffffffffffffffffffffffffffffff169060200190929190803573ffffffffffffffffffffffffffffffffffffffff169060200190929190803573ffffffffffffffffffffffffffffffffffffffff16906020019092919080359060200190929190505050613c97565b005b34801561137a57600080fd5b5061147e6004803603608081101561139157600080fd5b81019080803573ffffffffffffffffffffffffffffffffffffffff169060200190929190803573ffffffffffffffffffffffffffffffffffffffff16906020019092919080359060200190929190803590602001906401000000008111156113f857600080fd5b82018360208201111561140a57600080fd5b8035906020019184600183028401116401000000008311171561142c57600080fd5b91908080601f016020809104026020016040519081016040528093929190818152602001838380828437600081840152601f19601f820116905080830192505050505050509192919290505050613f33565b005b34801561148c57600080fd5b50611591600480360360808110156114a357600080fd5b8101908080356fffffffffffffffffffffffffffffffff169060200190929190803590602001906401000000008111156114dc57600080fd5b8201836020820111156114ee57600080fd5b8035906020019184602083028401116401000000008311171561151057600080fd5b90919293919293908035906020019064010000000081111561153157600080fd5b82018360208201111561154357600080fd5b8035906020019184602083028401116401000000008311171561156557600080fd5b909192939192939080356fffffffffffffffffffffffffffffffff169060200190929190505050613fa4565b005b34801561159f57600080fd5b506115e2600480360360208110156115b657600080fd5b81019080803573ffffffffffffffffffffffffffffffffffffffff1690602001909291905050506144de565b604051808215151515815260200191505060405180910390f35b34801561160857600080fd5b506116356004803603602081101561161f57600080fd5b81019080803590602001909291905050506144fb565b6040518080602001828103825283818151815260200191508051906020019080838360005b8381101561167557808201518184015260208101905061165a565b50505050905090810190601f1680156116a25780820380516001836020036101000a031916815260200191505b509250505060405180910390f35b3480156116bc57600080fd5b506116fb600480360360208110156116d357600080fd5b8101908080356fffffffffffffffffffffffffffffffff1690602001909291905050506146fd565b604051808215151515815260200191505060405180910390f35b34801561172157600080fd5b506117ff600480360360a081101561173857600080fd5b8101908080356fffffffffffffffffffffffffffffffff169060200190929190803573ffffffffffffffffffffffffffffffffffffffff169060200190929190803573ffffffffffffffffffffffffffffffffffffffff16906020019092919080359060200190929190803590602001906401000000008111156117bb57600080fd5b8201836020820111156117cd57600080fd5b803590602001918460018302840111640100000000831117156117ef57600080fd5b9091929391929390505050614721565b005b34801561180d57600080fd5b5061184c6004803603602081101561182457600080fd5b8101908080356fffffffffffffffffffffffffffffffff169060200190929190505050615577565b005b34801561185a57600080fd5b5061197b600480360360a081101561187157600080fd5b8101908080356fffffffffffffffffffffffffffffffff16906020019092919080356fffffffffffffffffffffffffffffffff169060200190929190803590602001906401000000008111156118c657600080fd5b8201836020820111156118d857600080fd5b803590602001918460208302840111640100000000831117156118fa57600080fd5b90919293919293908035906020019064010000000081111561191b57600080fd5b82018360208201111561192d57600080fd5b8035906020019184602083028401116401000000008311171561194f57600080fd5b909192939192939080356fffffffffffffffffffffffffffffffff169060200190929190505050615b59565b005b34801561198957600080fd5b506119c8600480360360208110156119a057600080fd5b8101908080356fffffffffffffffffffffffffffffffff169060200190929190505050615d98565b60405180836fffffffffffffffffffffffffffffffff166fffffffffffffffffffffffffffffffff1681526020018281526020019250505060405180910390f35b348015611a1557600080fd5b50611a5460048036036020811015611a2c57600080fd5b8101908080356fffffffffffffffffffffffffffffffff169060200190929190505050615e36565b604051808215151515815260200191505060405180910390f35b348015611a7a57600080fd5b50611add60048036036040811015611a9157600080fd5b81019080803573ffffffffffffffffffffffffffffffffffffffff169060200190929190803573ffffffffffffffffffffffffffffffffffffffff169060200190929190505050615eab565b604051808215151515815260200191505060405180910390f35b348015611b0357600080fd5b50611b4660048036036020811015611b1a57600080fd5b81019080803573ffffffffffffffffffffffffffffffffffffffff169060200190929190505050615f3f565b005b348015611b5457600080fd5b50611b9760048036036020811015611b6b57600080fd5b81019080803573ffffffffffffffffffffffffffffffffffffffff169060200190929190505050615fc5565b005b6000806000837bffffffffffffffffffffffffffffffffffffffffffffffffffffffff19167bffffffffffffffffffffffffffffffffffffffffffffffffffffffff1916815260200190815260200160002060009054906101000a900460ff169050919050565b6040518060400160405280600581526020017f466173747900000000000000000000000000000000000000000000000000000081525081565b6000611c448261604b565b611c99576040517f08c379a000000000000000000000000000000000000000000000000000000000815260040180806020018281038252602c815260200180618e55602c913960400191505060405180910390fd5b6002600083815260200190815260200160002060009054906101000a900473ffffffffffffffffffffffffffffffffffffffff169050919050565b600d60009054906101000a900460ff1615611d57576040517f08c379a00000000000000000000000000000000000000000000000000000000081526004018080602001828103825260108152602001807f5061757361626c653a207061757365640000000000000000000000000000000081525060200191505060405180910390fd5b611d6182826160bd565b5050565b611d6d61343e565b611ddf576040517f08c379a00000000000000000000000000000000000000000000000000000000081526004018080602001828103825260208152602001807f4f776e61626c653a2063616c6c6572206973206e6f7420746865206f776e657281525060200191505060405180910390fd5b611e2d8383838080601f016020809104026020016040519081016040528093929190818152602001838380828437600081840152601f19601f82011690508083019250505050505050616296565b505050565b6000600580549050905090565b611e493382616320565b611e9e576040517f08c379a0000000000000000000000000000000000000000000000000000000008152600401808060200182810382526031815260200180618f486031913960400191505060405180910390fd5b611ea9838383616414565b505050565b611eb733616492565b565b6000806000839250600f6000846fffffffffffffffffffffffffffffffff166fffffffffffffffffffffffffffffffff168152602001908152602001600020549150611f16836fffffffffffffffffffffffffffffffff16612a95565b90509193909250565b611f28336164ec565b565b611f3261343e565b611fa4576040517f08c379a00000000000000000000000000000000000000000000000000000000081526004018080602001828103825260208152602001807f4f776e61626c653a2063616c6c6572206973206e6f7420746865206f776e657281525060200191505060405180910390fd5b600d60009054906101000a900460ff16612026576040517f08c379a00000000000000000000000000000000000000000000000000000000081526004018080602001828103825260148152602001807f5061757361626c653a206e6f742070617573656400000000000000000000000081525060200191505060405180910390fd5b6000600d60006101000a81548160ff0219169083151502179055507f5db9ee0a495bf2e6ff9c91a7834c1ba4fdd244a5e8aa4e537bd38aeae4b073aa33604051808273ffffffffffffffffffffffffffffffffffffffff1673ffffffffffffffffffffffffffffffffffffffff16815260200191505060405180910390a1565b6120ae61343e565b612120576040517f08c379a00000000000000000000000000000000000000000000000000000000081526004018080602001828103825260208152602001807f4f776e61626c653a2063616c6c6572206973206e6f7420746865206f776e657281525060200191505060405180910390fd5b600d60009054906101000a900460ff16156121a3576040517f08c379a00000000000000000000000000000000000000000000000000000000081526004018080602001828103825260108152602001807f5061757361626c653a207061757365640000000000000000000000000000000081525060200191505060405180910390fd5b6000826fffffffffffffffffffffffffffffffff16141561222c576040517f08c379a00000000000000000000000000000000000000000000000000000000081526004018080602001828103825260128152602001807f4654593a20696e76616c6964206665654964000000000000000000000000000081525060200191505060405180910390fd5b600060146000846fffffffffffffffffffffffffffffffff166fffffffffffffffffffffffffffffffff16815260200190815260200160002060000160009054906101000a90046fffffffffffffffffffffffffffffffff166fffffffffffffffffffffffffffffffff161461230a576040517f08c379a000000000000000000000000000000000000000000000000000000000815260040180806020018281038252601b8152602001807f4654593a206665652068617320616c726561647920657869737473000000000081525060200191505060405180910390fd5b6040518060400160405280836fffffffffffffffffffffffffffffffff1681526020018281525060146000846fffffffffffffffffffffffffffffffff166fffffffffffffffffffffffffffffffff16815260200190815260200160002060008201518160000160006101000a8154816fffffffffffffffffffffffffffffffff02191690836fffffffffffffffffffffffffffffffff160217905550602082015181600101559050507fcd49970a695c99672c8fb6cec56406d50640033eeacf8d6cadfd2fc31d2633ed3383604051808373ffffffffffffffffffffffffffffffffffffffff1673ffffffffffffffffffffffffffffffffffffffff168152602001826fffffffffffffffffffffffffffffffff166fffffffffffffffffffffffffffffffff1681526020019250505060405180910390a15050565b61246283838360405180602001604052806000815250613f33565b505050565b6000612471611e32565b82106124c8576040517f08c379a000000000000000000000000000000000000000000000000000000000815260040180806020018281038252602c815260200180618f79602c913960400191505060405180910390fd5b600582815481106124d557fe5b90600052602060002001549050919050565b6124ef61343e565b612561576040517f08c379a00000000000000000000000000000000000000000000000000000000081526004018080602001828103825260208152602001807f4f776e61626c653a2063616c6c6572206973206e6f7420746865206f776e657281525060200191505060405180910390fd5b600d60009054906101000a900460ff16156125e4576040517f08c379a00000000000000000000000000000000000000000000000000000000081526004018080602001828103825260108152602001807f5061757361626c653a207061757365640000000000000000000000000000000081525060200191505060405180910390fd5b60008090505b89899050811461264257612635308b8b8481811061260457fe5b905060200201356fffffffffffffffffffffffffffffffff168a8a8581811061262957fe5b90506020020135616546565b80806001019150506125ea565b506126f78a8a8a600081811061265457fe5b905060200201356fffffffffffffffffffffffffffffffff16878780806020026020016040519081016040528093929190818152602001838360200280828437600081840152601f19601f82011690508083019250505050505050868680806020026020016040519081016040528093929190818152602001838360200280828437600081840152601f19601f820116905080830192505050505050508561661e565b6127c98a8a8a80806020026020016040519081016040528093929190818152602001838360200280828437600081840152601f19601f82011690508083019250505050505050878780806020026020016040519081016040528093929190818152602001838360200280828437600081840152601f19601f82011690508083019250505050505050868680806020026020016040519081016040528093929190818152602001838360200280828437600081840152601f19601f8201169050808301925050505050505060018661696b565b50505050505050505050565b6127dd61343e565b61284f576040517f08c379a00000000000000000000000000000000000000000000000000000000081526004018080602001828103825260208152602001807f4f776e61626c653a2063616c6c6572206973206e6f7420746865206f776e657281525060200191505060405180910390fd5b61289c82828080601f016020809104026020016040519081016040528093929190818152602001838380828437600081840152601f19601f82011690508083019250505050505050616d0e565b5050565b6128a861343e565b61291a576040517f08c379a00000000000000000000000000000000000000000000000000000000081526004018080602001828103825260208152602001807f4f776e61626c653a2063616c6c6572206973206e6f7420746865206f776e657281525060200191505060405180910390fd5b600d60009054906101000a900460ff161561299d576040517f08c379a00000000000000000000000000000000000000000000000000000000081526004018080602001828103825260108152602001807f5061757361626c653a207061757365640000000000000000000000000000000081525060200191505060405180910390fd5b818190508484905014612a18576040517f08c379a00000000000000000000000000000000000000000000000000000000081526004018080602001828103825260198152602001807f4654593a20696e76616c6964206172726179206c656e6774680000000000000081525060200191505060405180910390fd5b60008090505b848490508114612a7657612a6986868684818110612a3857fe5b905060200201356fffffffffffffffffffffffffffffffff16858585818110612a5d57fe5b90506020020135616546565b8080600101915050612a1e565b505050505050565b6000600d60009054906101000a900460ff16905090565b6000806001600084815260200190815260200160002060009054906101000a900473ffffffffffffffffffffffffffffffffffffffff169050600073ffffffffffffffffffffffffffffffffffffffff168173ffffffffffffffffffffffffffffffffffffffff161415612b54576040517f08c379a0000000000000000000000000000000000000000000000000000000008152600401808060200182810382526029815260200180618dea6029913960400191505060405180910390fd5b80915050919050565b60006060600080606080600080600080612b756187ed565b601060008d6fffffffffffffffffffffffffffffffff166fffffffffffffffffffffffffffffffff168152602001908152602001600020604051806101400160405290816000820160009054906101000a90046fffffffffffffffffffffffffffffffff166fffffffffffffffffffffffffffffffff166fffffffffffffffffffffffffffffffff16815260200160018201805480602002602001604051908101604052809291908181526020018280548015612c9557602002820191906000526020600020906000905b82829054906101000a90046fffffffffffffffffffffffffffffffff166fffffffffffffffffffffffffffffffff1681526020019060100190602082600f01049283019260010382029150808411612c405790505b505050505081526020016002820160009054906101000a900473ffffffffffffffffffffffffffffffffffffffff1673ffffffffffffffffffffffffffffffffffffffff1673ffffffffffffffffffffffffffffffffffffffff1681526020016003820160009054906101000a900473ffffffffffffffffffffffffffffffffffffffff1673ffffffffffffffffffffffffffffffffffffffff1673ffffffffffffffffffffffffffffffffffffffff16815260200160048201805480602002602001604051908101604052809291908181526020018280548015612dcf57602002820191906000526020600020905b8160009054906101000a900473ffffffffffffffffffffffffffffffffffffffff1673ffffffffffffffffffffffffffffffffffffffff1681526020019060010190808311612d85575b5050505050815260200160058201805480602002602001604051908101604052809291908181526020018280548015612e2757602002820191906000526020600020905b815481526020019060010190808311612e13575b505050505081526020016006820160009054906101000a900473ffffffffffffffffffffffffffffffffffffffff1673ffffffffffffffffffffffffffffffffffffffff1673ffffffffffffffffffffffffffffffffffffffff168152602001600782015481526020016008820160009054906101000a900460ff166001811115612eae57fe5b6001811115612eb957fe5b81526020016008820160019054906101000a900460ff166003811115612edb57fe5b6003811115612ee657fe5b81525050905080600001519a50806020015199508060400151985080606001519750806080015196508060a0015195508060c0015194508060e00151935080610100015192508061012001519150509193959799509193959799565b606060098054600181600116156101000203166002900480601f016020809104026020016040519081016040528092919081815260200182805460018160011615610100020316600290048015612fda5780601f10612faf57610100808354040283529160200191612fda565b820191906000526020600020905b815481529060010190602001808311612fbd57829003601f168201915b5050505050905090565b6000612ffa82600c616d2890919063ffffffff16565b9050919050565b60008073ffffffffffffffffffffffffffffffffffffffff168273ffffffffffffffffffffffffffffffffffffffff161415613088576040517f08c379a000000000000000000000000000000000000000000000000000000000815260040180806020018281038252602a815260200180618dc0602a913960400191505060405180910390fd5b6130cf600360008473ffffffffffffffffffffffffffffffffffffffff1673ffffffffffffffffffffffffffffffffffffffff168152602001908152602001600020616e06565b9050919050565b6130de61343e565b613150576040517f08c379a00000000000000000000000000000000000000000000000000000000081526004018080602001828103825260208152602001807f4f776e61626c653a2063616c6c6572206973206e6f7420746865206f776e657281525060200191505060405180910390fd5b600073ffffffffffffffffffffffffffffffffffffffff16600b60009054906101000a900473ffffffffffffffffffffffffffffffffffffffff1673ffffffffffffffffffffffffffffffffffffffff167f8be0079c531659141344cd1fd0a4f28419497f9722a3daafe3b4186f6b6457e060405160405180910390a36000600b60006101000a81548173ffffffffffffffffffffffffffffffffffffffff021916908373ffffffffffffffffffffffffffffffffffffffff160217905550565b61321961343e565b61328b576040517f08c379a00000000000000000000000000000000000000000000000000000000081526004018080602001828103825260208152602001807f4f776e61626c653a2063616c6c6572206973206e6f7420746865206f776e657281525060200191505060405180910390fd5b613294816164ec565b50565b61329f61343e565b613311576040517f08c379a00000000000000000000000000000000000000000000000000000000081526004018080602001828103825260208152602001807f4f776e61626c653a2063616c6c6572206973206e6f7420746865206f776e657281525060200191505060405180910390fd5b600d60009054906101000a900460ff1615613394576040517f08c379a00000000000000000000000000000000000000000000000000000000081526004018080602001828103825260108152602001807f5061757361626c653a207061757365640000000000000000000000000000000081525060200191505060405180910390fd5b6001600d60006101000a81548160ff0219169083151502179055507f62e78cea01bee320cd4e420270b5ea74000d11b0c9f74754ebdbfc544b05a25833604051808273ffffffffffffffffffffffffffffffffffffffff1673ffffffffffffffffffffffffffffffffffffffff16815260200191505060405180910390a1565b6000600b60009054906101000a900473ffffffffffffffffffffffffffffffffffffffff16905090565b6000600b60009054906101000a900473ffffffffffffffffffffffffffffffffffffffff1673ffffffffffffffffffffffffffffffffffffffff163373ffffffffffffffffffffffffffffffffffffffff1614905090565b6040518060400160405280600381526020017f465459000000000000000000000000000000000000000000000000000000000081525081565b6134d761343e565b613549576040517f08c379a00000000000000000000000000000000000000000000000000000000081526004018080602001828103825260208152602001807f4f776e61626c653a2063616c6c6572206973206e6f7420746865206f776e657281525060200191505060405180910390fd5b61355281616e14565b50565b600060156000836fffffffffffffffffffffffffffffffff166fffffffffffffffffffffffffffffffff16815260200190815260200160002060009054906101000a90046fffffffffffffffffffffffffffffffff169050919050565b600d60009054906101000a900460ff1615613635576040517f08c379a00000000000000000000000000000000000000000000000000000000081526004018080602001828103825260108152602001807f5061757361626c653a207061757365640000000000000000000000000000000081525060200191505060405180910390fd5b61363f8282616e6e565b5050565b600d60009054906101000a900460ff16156136c6576040517f08c379a00000000000000000000000000000000000000000000000000000000081526004018080602001828103825260108152602001807f5061757361626c653a207061757365640000000000000000000000000000000081525060200191505060405180910390fd5b600060106000836fffffffffffffffffffffffffffffffff166fffffffffffffffffffffffffffffffff168152602001908152602001600020905060008160000160009054906101000a90046fffffffffffffffffffffffffffffffff166fffffffffffffffffffffffffffffffff16141561378d576040517f08c379a0000000000000000000000000000000000000000000000000000000008152600401808060200182810382526023815260200180618fcf6023913960400191505060405180910390fd5b3373ffffffffffffffffffffffffffffffffffffffff168160020160009054906101000a900473ffffffffffffffffffffffffffffffffffffffff1673ffffffffffffffffffffffffffffffffffffffff161415613853576040517f08c379a00000000000000000000000000000000000000000000000000000000081526004018080602001828103825260128152602001807f4654593a20796f7520617265206f776e6572000000000000000000000000000081525060200191505060405180910390fd5b6000600381111561386057fe5b8160080160019054906101000a900460ff16600381111561387d57fe5b1415613af357600080905060008090505b8260040180549050811461393857600073ffffffffffffffffffffffffffffffffffffffff168360040182815481106138c357fe5b9060005260206000200160009054906101000a900473ffffffffffffffffffffffffffffffffffffffff1673ffffffffffffffffffffffffffffffffffffffff16141561392b5782600501818154811061391957fe5b90600052602060002001549150613938565b808060010191505061388e565b506000811415801561394957508034145b6139bb576040517f08c379a00000000000000000000000000000000000000000000000000000000081526004018080602001828103825260138152602001807f4654593a20696e76616c696420616d6f756e740000000000000000000000000081525060200191505060405180910390fd5b60018260080160016101000a81548160ff021916908360038111156139dc57fe5b02179055503360126000856fffffffffffffffffffffffffffffffff166fffffffffffffffffffffffffffffffff16815260200190815260200160002060006101000a81548173ffffffffffffffffffffffffffffffffffffffff021916908373ffffffffffffffffffffffffffffffffffffffff1602179055508160000160009054906101000a90046fffffffffffffffffffffffffffffffff166fffffffffffffffffffffffffffffffff167f4faf04ff0869dac3e6711c831d577dbf7a602a34324f3dcdc78be06264ccbf2933604051808273ffffffffffffffffffffffffffffffffffffffff1673ffffffffffffffffffffffffffffffffffffffff16815260200191505060405180910390a250613c07565b3373ffffffffffffffffffffffffffffffffffffffff166108fc349081150290604051600060405180830381858888f19350505050158015613b39573d6000803e3d6000fd5b507fbbeb4d5c68897a7991d8dc575495aad0a241f5ac656ac904586d3ab4bf9e58923383600034604051808573ffffffffffffffffffffffffffffffffffffffff1673ffffffffffffffffffffffffffffffffffffffff168152602001846fffffffffffffffffffffffffffffffff166fffffffffffffffffffffffffffffffff1681526020018373ffffffffffffffffffffffffffffffffffffffff1673ffffffffffffffffffffffffffffffffffffffff16815260200182815260200194505050505060405180910390a15b5050565b613c1361343e565b613c85576040517f08c379a00000000000000000000000000000000000000000000000000000000081526004018080602001828103825260208152602001807f4f776e61626c653a2063616c6c6572206973206e6f7420746865206f776e657281525060200191505060405180910390fd5b613c8e81616492565b50565b6103e881565b600d60009054906101000a900460ff1615613d1a576040517f08c379a00000000000000000000000000000000000000000000000000000000081526004018080602001828103825260108152602001807f5061757361626c653a207061757365640000000000000000000000000000000081525060200191505060405180910390fd5b613d2333612fe4565b613d95576040517f08c379a000000000000000000000000000000000000000000000000000000000815260040180806020018281038252601b8152602001807f4654593a2063616c6c6572206973206e6f74206f70657261746f72000000000081525060200191505060405180910390fd5b600060106000866fffffffffffffffffffffffffffffffff166fffffffffffffffffffffffffffffffff16815260200190815260200160002060000160009054906101000a90046fffffffffffffffffffffffffffffffff166fffffffffffffffffffffffffffffffff161415613e57576040517f08c379a0000000000000000000000000000000000000000000000000000000008152600401808060200182810382526023815260200180618fcf6023913960400191505060405180910390fd5b613e62838383617011565b7fbbeb4d5c68897a7991d8dc575495aad0a241f5ac656ac904586d3ab4bf9e589283858484604051808573ffffffffffffffffffffffffffffffffffffffff1673ffffffffffffffffffffffffffffffffffffffff168152602001846fffffffffffffffffffffffffffffffff166fffffffffffffffffffffffffffffffff1681526020018373ffffffffffffffffffffffffffffffffffffffff1673ffffffffffffffffffffffffffffffffffffffff16815260200182815260200194505050505060405180910390a150505050565b613f3d3383616320565b613f92576040517f08c379a0000000000000000000000000000000000000000000000000000000008152600401808060200182810382526031815260200180618f486031913960400191505060405180910390fd5b613f9e848484846173a4565b50505050565b600d60009054906101000a900460ff1615614027576040517f08c379a00000000000000000000000000000000000000000000000000000000081526004018080602001828103825260108152602001807f5061757361626c653a207061757365640000000000000000000000000000000081525060200191505060405180910390fd5b600060106000886fffffffffffffffffffffffffffffffff166fffffffffffffffffffffffffffffffff168152602001908152602001600020905060008160000160009054906101000a90046fffffffffffffffffffffffffffffffff166fffffffffffffffffffffffffffffffff1614156140ee576040517f08c379a0000000000000000000000000000000000000000000000000000000008152600401808060200182810382526023815260200180618fcf6023913960400191505060405180910390fd5b8060020160009054906101000a900473ffffffffffffffffffffffffffffffffffffffff1673ffffffffffffffffffffffffffffffffffffffff163373ffffffffffffffffffffffffffffffffffffffff16146141b3576040517f08c379a00000000000000000000000000000000000000000000000000000000081526004018080602001828103825260208152602001807f4654593a206f6e6c79206d616b65722063616e20757064617465206f7264657281525060200191505060405180910390fd5b600060038111156141c057fe5b8160080160019054906101000a900460ff1660038111156141dd57fe5b14614250576040517f08c379a000000000000000000000000000000000000000000000000000000000815260040180806020018281038252601e8152602001807f4654593a206f72646572206e6f7420616c6c6f7720746f20757064617465000081525060200191505060405180910390fd5b600060146000846fffffffffffffffffffffffffffffffff166fffffffffffffffffffffffffffffffff16815260200190815260200160002060000160009054906101000a90046fffffffffffffffffffffffffffffffff166fffffffffffffffffffffffffffffffff16141561432f576040517f08c379a00000000000000000000000000000000000000000000000000000000081526004018080602001828103825260178152602001807f4654593a20696e76616c69642073797374656d2066656500000000000000000081525060200191505060405180910390fd5b8383905086869050146143aa576040517f08c379a00000000000000000000000000000000000000000000000000000000081526004018080602001828103825260198152602001807f4654593a20696e76616c6964206172726179206c656e6774680000000000000081525060200191505060405180910390fd5b85858260040191906143bd9291906188aa565b5083838260050191906143d192919061894a565b508160156000896fffffffffffffffffffffffffffffffff166fffffffffffffffffffffffffffffffff16815260200190815260200160002060006101000a8154816fffffffffffffffffffffffffffffffff02191690836fffffffffffffffffffffffffffffffff1602179055508060000160009054906101000a90046fffffffffffffffffffffffffffffffff166fffffffffffffffffffffffffffffffff167e27f86415dbd02c5f89206dec635d49c61cdbf13344995f073614a5c78e3a1633604051808273ffffffffffffffffffffffffffffffffffffffff1673ffffffffffffffffffffffffffffffffffffffff16815260200191505060405180910390a250505050505050565b60006144f482600e616d2890919063ffffffff16565b9050919050565b60606145068261604b565b61455b576040517f08c379a000000000000000000000000000000000000000000000000000000000815260040180806020018281038252602f815260200180618ef8602f913960400191505060405180910390fd5b6060600a60008481526020019081526020016000208054600181600116156101000203166002900480601f0160208091040260200160405190810160405280929190818152602001828054600181600116156101000203166002900480156146045780601f106145d957610100808354040283529160200191614604565b820191906000526020600020905b8154815290600101906020018083116145e757829003601f168201915b5050505050905060008151141561462d57604051806020016040528060008152509150506146f8565b600981604051602001808380546001816001161561010002031660029004801561468e5780601f1061466c57610100808354040283529182019161468e565b820191906000526020600020905b81548152906001019060200180831161467a575b505082805190602001908083835b602083106146bf578051825260208201915060208101905060208303925061469c565b6001836020036101000a038019825116818451168082178552505050505050905001925050506040516020818303038152906040529150505b919050565b600061471a826fffffffffffffffffffffffffffffffff1661604b565b9050919050565b600d60009054906101000a900460ff16156147a4576040517f08c379a00000000000000000000000000000000000000000000000000000000081526004018080602001828103825260108152602001807f5061757361626c653a207061757365640000000000000000000000000000000081525060200191505060405180910390fd5b6147ad33612fe4565b61481f576040517f08c379a000000000000000000000000000000000000000000000000000000000815260040180806020018281038252601b8152602001807f4654593a2063616c6c6572206973206e6f74206f70657261746f72000000000081525060200191505060405180910390fd5b600073ffffffffffffffffffffffffffffffffffffffff168573ffffffffffffffffffffffffffffffffffffffff1614156148c2576040517f08c379a00000000000000000000000000000000000000000000000000000000081526004018080602001828103825260148152602001807f4654593a20696e76616c6964206164647265737300000000000000000000000081525060200191505060405180910390fd5b600073ffffffffffffffffffffffffffffffffffffffff1660126000886fffffffffffffffffffffffffffffffff166fffffffffffffffffffffffffffffffff16815260200190815260200160002060009054906101000a900473ffffffffffffffffffffffffffffffffffffffff1673ffffffffffffffffffffffffffffffffffffffff1614614a465760126000876fffffffffffffffffffffffffffffffff166fffffffffffffffffffffffffffffffff16815260200190815260200160002060009054906101000a900473ffffffffffffffffffffffffffffffffffffffff1673ffffffffffffffffffffffffffffffffffffffff168573ffffffffffffffffffffffffffffffffffffffff1614614a45576040517f08c379a00000000000000000000000000000000000000000000000000000000081526004018080602001828103825260128152602001807f4654593a20696e76616c69642074616b6572000000000000000000000000000081525060200191505060405180910390fd5b5b600060106000886fffffffffffffffffffffffffffffffff166fffffffffffffffffffffffffffffffff168152602001908152602001600020905060008160000160009054906101000a90046fffffffffffffffffffffffffffffffff166fffffffffffffffffffffffffffffffff161415614b0d576040517f08c379a0000000000000000000000000000000000000000000000000000000008152600401808060200182810382526023815260200180618fcf6023913960400191505060405180910390fd5b8573ffffffffffffffffffffffffffffffffffffffff168160020160009054906101000a900473ffffffffffffffffffffffffffffffffffffffff1673ffffffffffffffffffffffffffffffffffffffff161415614bd3576040517f08c379a00000000000000000000000000000000000000000000000000000000081526004018080602001828103825260128152602001807f4654593a20796f7520617265206f776e6572000000000000000000000000000081525060200191505060405180910390fd5b60006003811115614be057fe5b8160080160019054906101000a900460ff166003811115614bfd57fe5b1480614c30575060016003811115614c1157fe5b8160080160019054906101000a900460ff166003811115614c2e57fe5b145b614ca2576040517f08c379a000000000000000000000000000000000000000000000000000000000815260040180806020018281038252601f8152602001807f4654593a2063616e6e6f7420636f6d706c6574652074686973206f726465720081525060200191505060405180910390fd5b60138383604051808383808284378083019250505092505050908152602001604051809103902060009054906101000a900460ff1615614d4a576040517f08c379a00000000000000000000000000000000000000000000000000000000081526004018080602001828103825260178152602001807f4654593a2074786964206861732070726f63657373656400000000000000000081525060200191505060405180910390fd5b600080905060008090505b82600401805490508114614dfe57826004018181548110614d7257fe5b9060005260206000200160009054906101000a900473ffffffffffffffffffffffffffffffffffffffff1673ffffffffffffffffffffffffffffffffffffffff168773ffffffffffffffffffffffffffffffffffffffff161415614df157826005018181548110614ddf57fe5b90600052602060002001549150614dfe565b8080600101915050614d55565b5060008114158015614e0f57508481145b614e81576040517f08c379a00000000000000000000000000000000000000000000000000000000081526004018080602001828103825260138152602001807f4654593a20696e76616c696420616d6f756e740000000000000000000000000081525060200191505060405180910390fd5b6000809050614e8e613414565b73ffffffffffffffffffffffffffffffffffffffff168360020160009054906101000a900473ffffffffffffffffffffffffffffffffffffffff1673ffffffffffffffffffffffffffffffffffffffff161461500657614eec618997565b60146000601560008d6fffffffffffffffffffffffffffffffff166fffffffffffffffffffffffffffffffff16815260200190815260200160002060009054906101000a90046fffffffffffffffffffffffffffffffff166fffffffffffffffffffffffffffffffff166fffffffffffffffffffffffffffffffff1681526020019081526020016000206040518060400160405290816000820160009054906101000a90046fffffffffffffffffffffffffffffffff166fffffffffffffffffffffffffffffffff166fffffffffffffffffffffffffffffffff16815260200160018201548152505090506150026103e8614ff483602001518a61741690919063ffffffff16565b61749c90919063ffffffff16565b9150505b600073ffffffffffffffffffffffffffffffffffffffff168773ffffffffffffffffffffffffffffffffffffffff1614156150db5761507e8360020160009054906101000a900473ffffffffffffffffffffffffffffffffffffffff1673ffffffffffffffffffffffffffffffffffffffff166174e6565b73ffffffffffffffffffffffffffffffffffffffff166108fc6150aa83856174f090919063ffffffff16565b9081150290604051600060405180830381858888f193505050501580156150d5573d6000803e3d6000fd5b5061513d565b61513c8360020160009054906101000a900473ffffffffffffffffffffffffffffffffffffffff1661511683856174f090919063ffffffff16565b8973ffffffffffffffffffffffffffffffffffffffff1661753a9092919063ffffffff16565b5b6000600181111561514a57fe5b8360080160009054906101000a900460ff16600181111561516757fe5b1415615298573073ffffffffffffffffffffffffffffffffffffffff166342842e0e308a8660010160008154811061519b57fe5b90600052602060002090600291828204019190066010029054906101000a90046fffffffffffffffffffffffffffffffff166040518463ffffffff1660e01b8152600401808473ffffffffffffffffffffffffffffffffffffffff1673ffffffffffffffffffffffffffffffffffffffff1681526020018373ffffffffffffffffffffffffffffffffffffffff1673ffffffffffffffffffffffffffffffffffffffff168152602001826fffffffffffffffffffffffffffffffff1681526020019350505050600060405180830381600087803b15801561527b57600080fd5b505af115801561528f573d6000803e3d6000fd5b5050505061536b565b6001808111156152a457fe5b8360080160009054906101000a900460ff1660018111156152c157fe5b141561536a5761536930308a8660010180548060200260200160405190810160405280929190818152602001828054801561535f57602002820191906000526020600020906000905b82829054906101000a90046fffffffffffffffffffffffffffffffff166fffffffffffffffffffffffffffffffff1681526020019060100190602082600f0104928301926001038202915080841161530a5790505b505050505061760b565b5b5b878360030160006101000a81548173ffffffffffffffffffffffffffffffffffffffff021916908373ffffffffffffffffffffffffffffffffffffffff160217905550868360060160006101000a81548173ffffffffffffffffffffffffffffffffffffffff021916908373ffffffffffffffffffffffffffffffffffffffff16021790555081836007018190555060028360080160016101000a81548160ff0219169083600381111561541b57fe5b021790555087601260008b6fffffffffffffffffffffffffffffffff166fffffffffffffffffffffffffffffffff16815260200190815260200160002060006101000a81548173ffffffffffffffffffffffffffffffffffffffff021916908373ffffffffffffffffffffffffffffffffffffffff160217905550600160138686604051808383808284378083019250505092505050908152602001604051809103902060006101000a81548160ff0219169083151502179055508260000160009054906101000a90046fffffffffffffffffffffffffffffffff166fffffffffffffffffffffffffffffffff167f1f4e72df2e60034b20c1427f5dd8e6b0eedad4a9916a4d54bdaffae76d00fbcf33604051808273ffffffffffffffffffffffffffffffffffffffff1673ffffffffffffffffffffffffffffffffffffffff16815260200191505060405180910390a2505050505050505050565b600d60009054906101000a900460ff16156155fa576040517f08c379a00000000000000000000000000000000000000000000000000000000081526004018080602001828103825260108152602001807f5061757361626c653a207061757365640000000000000000000000000000000081525060200191505060405180910390fd5b600060106000836fffffffffffffffffffffffffffffffff166fffffffffffffffffffffffffffffffff168152602001908152602001600020905060008160000160009054906101000a90046fffffffffffffffffffffffffffffffff166fffffffffffffffffffffffffffffffff1614156156c1576040517f08c379a0000000000000000000000000000000000000000000000000000000008152600401808060200182810382526023815260200180618fcf6023913960400191505060405180910390fd5b8060020160009054906101000a900473ffffffffffffffffffffffffffffffffffffffff1673ffffffffffffffffffffffffffffffffffffffff163373ffffffffffffffffffffffffffffffffffffffff1614615786576040517f08c379a00000000000000000000000000000000000000000000000000000000081526004018080602001828103825260208152602001807f4654593a206f6e6c79206d616b65722063616e2063616e63656c206f7264657281525060200191505060405180910390fd5b6000600381111561579357fe5b8160080160019054906101000a900460ff1660038111156157b057fe5b14615823576040517f08c379a000000000000000000000000000000000000000000000000000000000815260040180806020018281038252601e8152602001807f4654593a206f72646572206e6f7420616c6c6f7720746f2063616e63656c000081525060200191505060405180910390fd5b6000600181111561583057fe5b8160080160009054906101000a900460ff16600181111561584d57fe5b14156159a2573073ffffffffffffffffffffffffffffffffffffffff166342842e0e308360020160009054906101000a900473ffffffffffffffffffffffffffffffffffffffff16846001016000815481106158a557fe5b90600052602060002090600291828204019190066010029054906101000a90046fffffffffffffffffffffffffffffffff166040518463ffffffff1660e01b8152600401808473ffffffffffffffffffffffffffffffffffffffff1673ffffffffffffffffffffffffffffffffffffffff1681526020018373ffffffffffffffffffffffffffffffffffffffff1673ffffffffffffffffffffffffffffffffffffffff168152602001826fffffffffffffffffffffffffffffffff1681526020019350505050600060405180830381600087803b15801561598557600080fd5b505af1158015615999573d6000803e3d6000fd5b50505050615a99565b6001808111156159ae57fe5b8160080160009054906101000a900460ff1660018111156159cb57fe5b1415615a9857615a9730308360020160009054906101000a900473ffffffffffffffffffffffffffffffffffffffff1684600101805480602002602001604051908101604052809291908181526020018280548015615a8d57602002820191906000526020600020906000905b82829054906101000a90046fffffffffffffffffffffffffffffffff166fffffffffffffffffffffffffffffffff1681526020019060100190602082600f01049283019260010382029150808411615a385790505b505050505061760b565b5b5b60038160080160016101000a81548160ff02191690836003811115615aba57fe5b02179055508060000160009054906101000a90046fffffffffffffffffffffffffffffffff166fffffffffffffffffffffffffffffffff167ffe6747b0a4132e956dc8b80d8e2bd4b541821f8e747bd173093d52afdd3ce84933604051808273ffffffffffffffffffffffffffffffffffffffff1673ffffffffffffffffffffffffffffffffffffffff16815260200191505060405180910390a25050565b600d60009054906101000a900460ff1615615bdc576040517f08c379a00000000000000000000000000000000000000000000000000000000081526004018080602001828103825260108152602001807f5061757361626c653a207061757365640000000000000000000000000000000081525060200191505060405180910390fd5b60606001604051908082528060200260200182016040528015615c0e5781602001602082028038833980820191505090505b5090508681600081518110615c1f57fe5b60200260200101906fffffffffffffffffffffffffffffffff1690816fffffffffffffffffffffffffffffffff1681525050615ce08888888880806020026020016040519081016040528093929190818152602001838360200280828437600081840152601f19601f82011690508083019250505050505050878780806020026020016040519081016040528093929190818152602001838360200280828437600081840152601f19601f820116905080830192505050505050508661661e565b615cfd3330896fffffffffffffffffffffffffffffffff16611e3f565b615d8e8882888880806020026020016040519081016040528093929190818152602001838360200280828437600081840152601f19601f82011690508083019250505050505050878780806020026020016040519081016040528093929190818152602001838360200280828437600081840152601f19601f8201169050808301925050505050505060008761696b565b5050505050505050565b60008060146000846fffffffffffffffffffffffffffffffff166fffffffffffffffffffffffffffffffff16815260200190815260200160002060000160009054906101000a90046fffffffffffffffffffffffffffffffff16915060146000846fffffffffffffffffffffffffffffffff166fffffffffffffffffffffffffffffffff168152602001908152602001600020600101549050915091565b60008060106000846fffffffffffffffffffffffffffffffff166fffffffffffffffffffffffffffffffff16815260200190815260200160002060000160009054906101000a90046fffffffffffffffffffffffffffffffff166fffffffffffffffffffffffffffffffff1614159050919050565b6000600460008473ffffffffffffffffffffffffffffffffffffffff1673ffffffffffffffffffffffffffffffffffffffff16815260200190815260200160002060008373ffffffffffffffffffffffffffffffffffffffff1673ffffffffffffffffffffffffffffffffffffffff16815260200190815260200160002060009054906101000a900460ff16905092915050565b615f4761343e565b615fb9576040517f08c379a00000000000000000000000000000000000000000000000000000000081526004018080602001828103825260208152602001807f4f776e61626c653a2063616c6c6572206973206e6f7420746865206f776e657281525060200191505060405180910390fd5b615fc281617795565b50565b615fcd61343e565b61603f576040517f08c379a00000000000000000000000000000000000000000000000000000000081526004018080602001828103825260208152602001807f4f776e61626c653a2063616c6c6572206973206e6f7420746865206f776e657281525060200191505060405180910390fd5b616048816178db565b50565b6000806001600084815260200190815260200160002060009054906101000a900473ffffffffffffffffffffffffffffffffffffffff169050600073ffffffffffffffffffffffffffffffffffffffff168173ffffffffffffffffffffffffffffffffffffffff161415915050919050565b60006160c882612a95565b90508073ffffffffffffffffffffffffffffffffffffffff168373ffffffffffffffffffffffffffffffffffffffff16141561614f576040517f08c379a0000000000000000000000000000000000000000000000000000000008152600401808060200182810382526021815260200180618f276021913960400191505060405180910390fd5b8073ffffffffffffffffffffffffffffffffffffffff163373ffffffffffffffffffffffffffffffffffffffff16148061618f575061618e8133615eab565b5b6161e4576040517f08c379a0000000000000000000000000000000000000000000000000000000008152600401808060200182810382526038815260200180618d886038913960400191505060405180910390fd5b826002600084815260200190815260200160002060006101000a81548173ffffffffffffffffffffffffffffffffffffffff021916908373ffffffffffffffffffffffffffffffffffffffff160217905550818373ffffffffffffffffffffffffffffffffffffffff168273ffffffffffffffffffffffffffffffffffffffff167f8c5be1e5ebec7d5bd14f71427d1e84f3dd0314c0f7b2291e5b200ac8c7c3b92560405160405180910390a4505050565b61629f8261604b565b6162f4576040517f08c379a000000000000000000000000000000000000000000000000000000000815260040180806020018281038252602c815260200180618e81602c913960400191505060405180910390fd5b80600a6000848152602001908152602001600020908051906020019061631b9291906189c3565b505050565b600061632b8261604b565b616380576040517f08c379a000000000000000000000000000000000000000000000000000000000815260040180806020018281038252602c815260200180618d5c602c913960400191505060405180910390fd5b600061638b83612a95565b90508073ffffffffffffffffffffffffffffffffffffffff168473ffffffffffffffffffffffffffffffffffffffff1614806163fa57508373ffffffffffffffffffffffffffffffffffffffff166163e284611c39565b73ffffffffffffffffffffffffffffffffffffffff16145b8061640b575061640a8185615eab565b5b91505092915050565b61641d836144de565b8061642d575061642c826144de565b5b616482576040517f08c379a000000000000000000000000000000000000000000000000000000000815260040180806020018281038252604a815260200180618c96604a913960600191505060405180910390fd5b61648d838383617935565b505050565b6164a681600c6179c890919063ffffffff16565b8073ffffffffffffffffffffffffffffffffffffffff167f80c0b871b97b595b16a7741c1b06fed0c6f6f558639f18ccbce50724325dc40d60405160405180910390a250565b61650081600e6179c890919063ffffffff16565b8073ffffffffffffffffffffffffffffffffffffffff167fde8cf212af7ce38b2840785a2768d97ff2dbf3c21b516961cec0061e134c2a1e60405160405180910390a250565b6000602060ff1614156165c1576040517f08c379a00000000000000000000000000000000000000000000000000000000081526004018080602001828103825260188152602001807f4654593a20696e76616c69642070726f647563744e616d65000000000000000081525060200191505060405180910390fd5b80600f6000846fffffffffffffffffffffffffffffffff166fffffffffffffffffffffffffffffffff1681526020019081526020016000208190555061661983836fffffffffffffffffffffffffffffffff16617a85565b505050565b6000856fffffffffffffffffffffffffffffffff1614156166a7576040517f08c379a00000000000000000000000000000000000000000000000000000000081526004018080602001828103825260148152602001807f4654593a20696e76616c6964206f72646572496400000000000000000000000081525060200191505060405180910390fd5b600060106000876fffffffffffffffffffffffffffffffff166fffffffffffffffffffffffffffffffff16815260200190815260200160002060000160009054906101000a90046fffffffffffffffffffffffffffffffff166fffffffffffffffffffffffffffffffff1614616785576040517f08c379a000000000000000000000000000000000000000000000000000000000815260040180806020018281038252601d8152602001807f4654593a206f726465722068617320616c72656164792065786973747300000081525060200191505060405180910390fd5b6000846fffffffffffffffffffffffffffffffff16141561680e576040517f08c379a00000000000000000000000000000000000000000000000000000000081526004018080602001828103825260138152602001807f4654593a20696e76616c696420676f6f6449640000000000000000000000000081525060200191505060405180910390fd5b8151835114616885576040517f08c379a00000000000000000000000000000000000000000000000000000000081526004018080602001828103825260198152602001807f4654593a20696e76616c6964206172726179206c656e6774680000000000000081525060200191505060405180910390fd5b600060146000836fffffffffffffffffffffffffffffffff166fffffffffffffffffffffffffffffffff16815260200190815260200160002060000160009054906101000a90046fffffffffffffffffffffffffffffffff166fffffffffffffffffffffffffffffffff161415616964576040517f08c379a00000000000000000000000000000000000000000000000000000000081526004018080602001828103825260178152602001807f4654593a20696e76616c69642073797374656d2066656500000000000000000081525060200191505060405180910390fd5b5050505050565b604051806101400160405280876fffffffffffffffffffffffffffffffff1681526020018681526020013373ffffffffffffffffffffffffffffffffffffffff168152602001600073ffffffffffffffffffffffffffffffffffffffff168152602001858152602001848152602001600073ffffffffffffffffffffffffffffffffffffffff16815260200160008152602001836001811115616a0a57fe5b815260200160006003811115616a1c57fe5b81525060106000886fffffffffffffffffffffffffffffffff166fffffffffffffffffffffffffffffffff16815260200190815260200160002060008201518160000160006101000a8154816fffffffffffffffffffffffffffffffff02191690836fffffffffffffffffffffffffffffffff1602179055506020820151816001019080519060200190616ab1929190618a43565b5060408201518160020160006101000a81548173ffffffffffffffffffffffffffffffffffffffff021916908373ffffffffffffffffffffffffffffffffffffffff16021790555060608201518160030160006101000a81548173ffffffffffffffffffffffffffffffffffffffff021916908373ffffffffffffffffffffffffffffffffffffffff1602179055506080820151816004019080519060200190616b5c929190618b17565b5060a0820151816005019080519060200190616b79929190618ba1565b5060c08201518160060160006101000a81548173ffffffffffffffffffffffffffffffffffffffff021916908373ffffffffffffffffffffffffffffffffffffffff16021790555060e082015181600701556101008201518160080160006101000a81548160ff02191690836001811115616bf057fe5b02179055506101208201518160080160016101000a81548160ff02191690836003811115616c1a57fe5b02179055509050508060156000886fffffffffffffffffffffffffffffffff166fffffffffffffffffffffffffffffffff16815260200190815260200160002060006101000a8154816fffffffffffffffffffffffffffffffff02191690836fffffffffffffffffffffffffffffffff160217905550856fffffffffffffffffffffffffffffffff167fb1a25994da8bb64efd778ed0dda424120106ae005c1d9dd60161455a1963d63833604051808273ffffffffffffffffffffffffffffffffffffffff1673ffffffffffffffffffffffffffffffffffffffff16815260200191505060405180910390a2505050505050565b8060099080519060200190616d249291906189c3565b5050565b60008073ffffffffffffffffffffffffffffffffffffffff168273ffffffffffffffffffffffffffffffffffffffff161415616daf576040517f08c379a0000000000000000000000000000000000000000000000000000000008152600401808060200182810382526022815260200180618ead6022913960400191505060405180910390fd5b8260000160008373ffffffffffffffffffffffffffffffffffffffff1673ffffffffffffffffffffffffffffffffffffffff16815260200190815260200160002060009054906101000a900460ff16905092915050565b600081600001549050919050565b616e2881600c617a9c90919063ffffffff16565b8073ffffffffffffffffffffffffffffffffffffffff167fac6fa858e9350a46cec16539926e0fde25b7629f84b5a72bffaae4df888ae86d60405160405180910390a250565b3373ffffffffffffffffffffffffffffffffffffffff168273ffffffffffffffffffffffffffffffffffffffff161415616f10576040517f08c379a00000000000000000000000000000000000000000000000000000000081526004018080602001828103825260198152602001807f4552433732313a20617070726f766520746f2063616c6c65720000000000000081525060200191505060405180910390fd5b80600460003373ffffffffffffffffffffffffffffffffffffffff1673ffffffffffffffffffffffffffffffffffffffff16815260200190815260200160002060008473ffffffffffffffffffffffffffffffffffffffff1673ffffffffffffffffffffffffffffffffffffffff16815260200190815260200160002060006101000a81548160ff0219169083151502179055508173ffffffffffffffffffffffffffffffffffffffff163373ffffffffffffffffffffffffffffffffffffffff167f17307eab39ab6107e8899845ad3d59bd9653f200f220920489ca2b5937696c3183604051808215151515815260200191505060405180910390a35050565b600073ffffffffffffffffffffffffffffffffffffffff168373ffffffffffffffffffffffffffffffffffffffff1614156170b4576040517f08c379a00000000000000000000000000000000000000000000000000000000081526004018080602001828103825260148152602001807f4654593a20696e76616c6964206164647265737300000000000000000000000081525060200191505060405180910390fd5b600081141561712b576040517f08c379a00000000000000000000000000000000000000000000000000000000081526004018080602001828103825260138152602001807f4654593a20696e76616c696420616d6f756e740000000000000000000000000081525060200191505060405180910390fd5b600073ffffffffffffffffffffffffffffffffffffffff168273ffffffffffffffffffffffffffffffffffffffff16141561724057804710156171d6576040517f08c379a00000000000000000000000000000000000000000000000000000000081526004018080602001828103825260178152602001807f4654593a2062616c616e6365206e6f7420656e6f75676800000000000000000081525060200191505060405180910390fd5b6171f58373ffffffffffffffffffffffffffffffffffffffff166174e6565b73ffffffffffffffffffffffffffffffffffffffff166108fc829081150290604051600060405180830381858888f1935050505015801561723a573d6000803e3d6000fd5b5061739f565b60008273ffffffffffffffffffffffffffffffffffffffff166370a08231306040518263ffffffff1660e01b8152600401808273ffffffffffffffffffffffffffffffffffffffff1673ffffffffffffffffffffffffffffffffffffffff16815260200191505060206040518083038186803b1580156172bf57600080fd5b505afa1580156172d3573d6000803e3d6000fd5b505050506040513d60208110156172e957600080fd5b8101908080519060200190929190505050905081811015617372576040517f08c379a00000000000000000000000000000000000000000000000000000000081526004018080602001828103825260178152602001807f4654593a2062616c616e6365206e6f7420656e6f75676800000000000000000081525060200191505060405180910390fd5b61739d84838573ffffffffffffffffffffffffffffffffffffffff1661753a9092919063ffffffff16565b505b505050565b6173af848484616414565b6173bb84848484617b77565b617410576040517f08c379a0000000000000000000000000000000000000000000000000000000008152600401808060200182810382526032815260200180618ce06032913960400191505060405180910390fd5b50505050565b6000808314156174295760009050617496565b600082840290508284828161743a57fe5b0414617491576040517f08c379a0000000000000000000000000000000000000000000000000000000008152600401808060200182810382526021815260200180618e346021913960400191505060405180910390fd5b809150505b92915050565b60006174de83836040518060400160405280601a81526020017f536166654d6174683a206469766973696f6e206279207a65726f000000000000815250617eac565b905092915050565b6000819050919050565b600061753283836040518060400160405280601e81526020017f536166654d6174683a207375627472616374696f6e206f766572666c6f770000815250617f72565b905092915050565b617606838473ffffffffffffffffffffffffffffffffffffffff1663a9059cbb905060e01b8484604051602401808373ffffffffffffffffffffffffffffffffffffffff1673ffffffffffffffffffffffffffffffffffffffff16815260200182815260200192505050604051602081830303815290604052907bffffffffffffffffffffffffffffffffffffffffffffffffffffffff19166020820180517bffffffffffffffffffffffffffffffffffffffffffffffffffffffff8381831617835250505050618032565b505050565b60008151905060008090505b81811461778d57600073ffffffffffffffffffffffffffffffffffffffff168673ffffffffffffffffffffffffffffffffffffffff161461774f578573ffffffffffffffffffffffffffffffffffffffff166342842e0e868686858151811061767c57fe5b60200260200101516040518463ffffffff1660e01b8152600401808473ffffffffffffffffffffffffffffffffffffffff1673ffffffffffffffffffffffffffffffffffffffff1681526020018373ffffffffffffffffffffffffffffffffffffffff1673ffffffffffffffffffffffffffffffffffffffff168152602001826fffffffffffffffffffffffffffffffff1681526020019350505050600060405180830381600087803b15801561773257600080fd5b505af1158015617746573d6000803e3d6000fd5b50505050617780565b61777f858585848151811061776057fe5b60200260200101516fffffffffffffffffffffffffffffffff16612447565b5b8080600101915050617617565b505050505050565b600073ffffffffffffffffffffffffffffffffffffffff168173ffffffffffffffffffffffffffffffffffffffff16141561781b576040517f08c379a0000000000000000000000000000000000000000000000000000000008152600401808060200182810382526026815260200180618d126026913960400191505060405180910390fd5b8073ffffffffffffffffffffffffffffffffffffffff16600b60009054906101000a900473ffffffffffffffffffffffffffffffffffffffff1673ffffffffffffffffffffffffffffffffffffffff167f8be0079c531659141344cd1fd0a4f28419497f9722a3daafe3b4186f6b6457e060405160405180910390a380600b60006101000a81548173ffffffffffffffffffffffffffffffffffffffff021916908373ffffffffffffffffffffffffffffffffffffffff16021790555050565b6178ef81600e617a9c90919063ffffffff16565b8073ffffffffffffffffffffffffffffffffffffffff167f4790a4adb426ca2345bb5108f6e454eae852a7bf687544cd66a7270dff3a41d660405160405180910390a250565b600d60009054906101000a900460ff16156179b8576040517f08c379a00000000000000000000000000000000000000000000000000000000081526004018080602001828103825260108152602001807f5061757361626c653a207061757365640000000000000000000000000000000081525060200191505060405180910390fd5b6179c38383836181ec565b505050565b6179d28282616d28565b617a27576040517f08c379a0000000000000000000000000000000000000000000000000000000008152600401808060200182810382526021815260200180618e136021913960400191505060405180910390fd5b60008260000160008373ffffffffffffffffffffffffffffffffffffffff1673ffffffffffffffffffffffffffffffffffffffff16815260200190815260200160002060006101000a81548160ff0219169083151502179055505050565b617a8f8282618447565b617a988161865f565b5050565b617aa68282616d28565b15617b19576040517f08c379a000000000000000000000000000000000000000000000000000000000815260040180806020018281038252601f8152602001807f526f6c65733a206163636f756e7420616c72656164792068617320726f6c650081525060200191505060405180910390fd5b60018260000160008373ffffffffffffffffffffffffffffffffffffffff1673ffffffffffffffffffffffffffffffffffffffff16815260200190815260200160002060006101000a81548160ff0219169083151502179055505050565b6000617b988473ffffffffffffffffffffffffffffffffffffffff166186ab565b617ba55760019050617ea4565b600060608573ffffffffffffffffffffffffffffffffffffffff168673ffffffffffffffffffffffffffffffffffffffff1663150b7a02905060e01b33898888604051602401808573ffffffffffffffffffffffffffffffffffffffff1673ffffffffffffffffffffffffffffffffffffffff1681526020018473ffffffffffffffffffffffffffffffffffffffff1673ffffffffffffffffffffffffffffffffffffffff16815260200183815260200180602001828103825283818151815260200191508051906020019080838360005b83811015617c92578082015181840152602081019050617c77565b50505050905090810190601f168015617cbf5780820380516001836020036101000a031916815260200191505b5095505050505050604051602081830303815290604052907bffffffffffffffffffffffffffffffffffffffffffffffffffffffff19166020820180517bffffffffffffffffffffffffffffffffffffffffffffffffffffffff83818316178352505050506040518082805190602001908083835b60208310617d575780518252602082019150602081019050602083039250617d34565b6001836020036101000a0380198251168184511680821785525050505050509050019150506000604051808303816000865af19150503d8060008114617db9576040519150601f19603f3d011682016040523d82523d6000602084013e617dbe565b606091505b509150915081617e2c57600081511115617ddb5780518082602001fd5b6040517f08c379a0000000000000000000000000000000000000000000000000000000008152600401808060200182810382526032815260200180618ce06032913960400191505060405180910390fd5b6000818060200190516020811015617e4357600080fd5b8101908080519060200190929190505050905063150b7a0260e01b7bffffffffffffffffffffffffffffffffffffffffffffffffffffffff1916817bffffffffffffffffffffffffffffffffffffffffffffffffffffffff19161493505050505b949350505050565b60008083118290617f58576040517f08c379a00000000000000000000000000000000000000000000000000000000081526004018080602001828103825283818151815260200191508051906020019080838360005b83811015617f1d578082015181840152602081019050617f02565b50505050905090810190601f168015617f4a5780820380516001836020036101000a031916815260200191505b509250505060405180910390fd5b506000838581617f6457fe5b049050809150509392505050565b600083831115829061801f576040517f08c379a00000000000000000000000000000000000000000000000000000000081526004018080602001828103825283818151815260200191508051906020019080838360005b83811015617fe4578082015181840152602081019050617fc9565b50505050905090810190601f1680156180115780820380516001836020036101000a031916815260200191505b509250505060405180910390fd5b5060008385039050809150509392505050565b600060608373ffffffffffffffffffffffffffffffffffffffff16836040518082805190602001908083835b60208310618081578051825260208201915060208101905060208303925061805e565b6001836020036101000a0380198251168184511680821785525050505050509050019150506000604051808303816000865af19150503d80600081146180e3576040519150601f19603f3d011682016040523d82523d6000602084013e6180e8565b606091505b509150915081618160576040517f08c379a00000000000000000000000000000000000000000000000000000000081526004018080602001828103825260208152602001807f5361666545524332303a206c6f772d6c6576656c2063616c6c206661696c656481525060200191505060405180910390fd5b6000815111156181e65780806020019051602081101561817f57600080fd5b81019080805190602001909291905050506181e5576040517f08c379a000000000000000000000000000000000000000000000000000000000815260040180806020018281038252602a815260200180618fa5602a913960400191505060405180910390fd5b5b50505050565b8273ffffffffffffffffffffffffffffffffffffffff1661820c82612a95565b73ffffffffffffffffffffffffffffffffffffffff1614618278576040517f08c379a0000000000000000000000000000000000000000000000000000000008152600401808060200182810382526029815260200180618ecf6029913960400191505060405180910390fd5b600073ffffffffffffffffffffffffffffffffffffffff168273ffffffffffffffffffffffffffffffffffffffff1614156182fe576040517f08c379a0000000000000000000000000000000000000000000000000000000008152600401808060200182810382526024815260200180618d386024913960400191505060405180910390fd5b618307816186f6565b61834e600360008573ffffffffffffffffffffffffffffffffffffffff1673ffffffffffffffffffffffffffffffffffffffff1681526020019081526020016000206187b4565b618395600360008473ffffffffffffffffffffffffffffffffffffffff1673ffffffffffffffffffffffffffffffffffffffff1681526020019081526020016000206187d7565b816001600083815260200190815260200160002060006101000a81548173ffffffffffffffffffffffffffffffffffffffff021916908373ffffffffffffffffffffffffffffffffffffffff160217905550808273ffffffffffffffffffffffffffffffffffffffff168473ffffffffffffffffffffffffffffffffffffffff167fddf252ad1be2c89b69c2b068fc378daa952ba7f163c4a11628f55a4df523b3ef60405160405180910390a4505050565b600073ffffffffffffffffffffffffffffffffffffffff168273ffffffffffffffffffffffffffffffffffffffff1614156184ea576040517f08c379a00000000000000000000000000000000000000000000000000000000081526004018080602001828103825260208152602001807f4552433732313a206d696e7420746f20746865207a65726f206164647265737381525060200191505060405180910390fd5b6184f38161604b565b15618566576040517f08c379a000000000000000000000000000000000000000000000000000000000815260040180806020018281038252601c8152602001807f4552433732313a20746f6b656e20616c7265616479206d696e7465640000000081525060200191505060405180910390fd5b816001600083815260200190815260200160002060006101000a81548173ffffffffffffffffffffffffffffffffffffffff021916908373ffffffffffffffffffffffffffffffffffffffff1602179055506185ff600360008473ffffffffffffffffffffffffffffffffffffffff1673ffffffffffffffffffffffffffffffffffffffff1681526020019081526020016000206187d7565b808273ffffffffffffffffffffffffffffffffffffffff16600073ffffffffffffffffffffffffffffffffffffffff167fddf252ad1be2c89b69c2b068fc378daa952ba7f163c4a11628f55a4df523b3ef60405160405180910390a45050565b6005805490506006600083815260200190815260200160002081905550600581908060018154018082558091505090600182039060005260206000200160009091929091909150555050565b60008060007fc5d2460186f7233c927e7db2dcc703c0e500b653ca82273b7bfad8045d85a47060001b9050833f91508082141580156186ed57506000801b8214155b92505050919050565b600073ffffffffffffffffffffffffffffffffffffffff166002600083815260200190815260200160002060009054906101000a900473ffffffffffffffffffffffffffffffffffffffff1673ffffffffffffffffffffffffffffffffffffffff16146187b15760006002600083815260200190815260200160002060006101000a81548173ffffffffffffffffffffffffffffffffffffffff021916908373ffffffffffffffffffffffffffffffffffffffff1602179055505b50565b6187cc600182600001546174f090919063ffffffff16565b816000018190555050565b6001816000016000828254019250508190555050565b60405180610140016040528060006fffffffffffffffffffffffffffffffff16815260200160608152602001600073ffffffffffffffffffffffffffffffffffffffff168152602001600073ffffffffffffffffffffffffffffffffffffffff1681526020016060815260200160608152602001600073ffffffffffffffffffffffffffffffffffffffff168152602001600081526020016000600181111561889257fe5b8152602001600060038111156188a457fe5b81525090565b828054828255906000526020600020908101928215618939579160200282015b8281111561893857823573ffffffffffffffffffffffffffffffffffffffff168260006101000a81548173ffffffffffffffffffffffffffffffffffffffff021916908373ffffffffffffffffffffffffffffffffffffffff160217905550916020019190600101906188ca565b5b5090506189469190618bee565b5090565b828054828255906000526020600020908101928215618986579160200282015b8281111561898557823582559160200191906001019061896a565b5b5090506189939190618c31565b5090565b604051806040016040528060006fffffffffffffffffffffffffffffffff168152602001600081525090565b828054600181600116156101000203166002900490600052602060002090601f016020900481019282601f10618a0457805160ff1916838001178555618a32565b82800160010185558215618a32579182015b82811115618a31578251825591602001919060010190618a16565b5b509050618a3f9190618c31565b5090565b82805482825590600052602060002090600101600290048101928215618b065791602002820160005b83821115618ac857835183826101000a8154816fffffffffffffffffffffffffffffffff02191690836fffffffffffffffffffffffffffffffff1602179055509260200192601001602081600f01049283019260010302618a6c565b8015618b045782816101000a8154906fffffffffffffffffffffffffffffffff0219169055601001602081600f01049283019260010302618ac8565b505b509050618b139190618c56565b5090565b828054828255906000526020600020908101928215618b90579160200282015b82811115618b8f5782518260006101000a81548173ffffffffffffffffffffffffffffffffffffffff021916908373ffffffffffffffffffffffffffffffffffffffff16021790555091602001919060010190618b37565b5b509050618b9d9190618bee565b5090565b828054828255906000526020600020908101928215618bdd579160200282015b82811115618bdc578251825591602001919060010190618bc1565b5b509050618bea9190618c31565b5090565b618c2e91905b80821115618c2a57600081816101000a81549073ffffffffffffffffffffffffffffffffffffffff021916905550600101618bf4565b5090565b90565b618c5391905b80821115618c4f576000816000905550600101618c37565b5090565b90565b618c9291905b80821115618c8e57600081816101000a8154906fffffffffffffffffffffffffffffffff021916905550600101618c5c565b5090565b9056fe45524337323157686974656c6973743a2053656e646572206f7220726563697069656e7420646f6573206e6f742062656c6f6e6720746f207468652077686974656c69737420726f6c654552433732313a207472616e7366657220746f206e6f6e20455243373231526563656976657220696d706c656d656e7465724f776e61626c653a206e6577206f776e657220697320746865207a65726f20616464726573734552433732313a207472616e7366657220746f20746865207a65726f20616464726573734552433732313a206f70657261746f7220717565727920666f72206e6f6e6578697374656e7420746f6b656e4552433732313a20617070726f76652063616c6c6572206973206e6f74206f776e6572206e6f7220617070726f76656420666f7220616c6c4552433732313a2062616c616e636520717565727920666f7220746865207a65726f20616464726573734552433732313a206f776e657220717565727920666f72206e6f6e6578697374656e7420746f6b656e526f6c65733a206163636f756e7420646f6573206e6f74206861766520726f6c65536166654d6174683a206d756c7469706c69636174696f6e206f766572666c6f774552433732313a20617070726f76656420717565727920666f72206e6f6e6578697374656e7420746f6b656e4552433732314d657461646174613a2055524920736574206f66206e6f6e6578697374656e7420746f6b656e526f6c65733a206163636f756e7420697320746865207a65726f20616464726573734552433732313a207472616e73666572206f6620746f6b656e2074686174206973206e6f74206f776e4552433732314d657461646174613a2055524920717565727920666f72206e6f6e6578697374656e7420746f6b656e4552433732313a20617070726f76616c20746f2063757272656e74206f776e65724552433732313a207472616e736665722063616c6c6572206973206e6f74206f776e6572206e6f7220617070726f766564455243373231456e756d657261626c653a20676c6f62616c20696e646578206f7574206f6620626f756e64735361666545524332303a204552433230206f7065726174696f6e20646964206e6f7420737563636565644654593a2063616c6c6572207175657279206e6f6e6578697374656e74206f72646572a265627a7a723158203265867584f6161370831965e6fd4485885937822f8168334d1b5b08907ffbc364736f6c63430005110032526f6c65733a206163636f756e7420697320746865207a65726f2061646472657373",
  "source": "// SPDX-License-Identifier: MIT\npragma solidity >=0.4.22 <0.8.0;\n\nimport \"./ownership/Operator.sol\";\nimport \"./lifecycle/Pausable.sol\";\nimport \"./token/ERC721Full.sol\";\nimport \"./libraries/SafeERC20.sol\";\n\ncontract FastyToken is Operator, Pausable, ERC721Full {\n    using SafeERC20 for IERC20;\n\n    string public constant name = \"Fasty\";\n    string public constant symbol = \"FTY\";\n    uint256 public constant SYSTEM_FEE_COEFF = 1000; // 1x percent, 1000 = 100%\n\n    struct Order {\n        // Order ID - in uuid format\n        uint128 id;\n        // List of product IDs will be exchanged in this order\n        uint128[] productIds;\n        // The order maker (in this app it's always seller)\n        address maker;\n        // The order taker (in this app it's always buyer)\n        address taker;\n        // The seller's desired currencies. This is actually ERC20 contract address\n        // For Ethereum as currency, will use special address 0x0\n        address[] offeredCurrencies;\n        // The seller's desired amount for each currency respestively\n        uint256[] offeredAmounts;\n        // The currency that buyer uses to fulfill the order\n        address fulfilledCurrency;\n        // The amount that buyer uses to fulfill the order\n        uint256 fulfilledAmount;\n        // The type of order\n        OrderType otype;\n        // The status of order\n        OrderStatus status;\n    }\n\n    enum OrderStatus {OPEN, HOLDING, FULFILLED, CANCELLED}\n\n    struct SystemFee {\n        uint128 id;\n        // % fasty fee per transaction\n        uint256 fastyFee;\n    }\n\n    enum OrderType {OrderIndividual, OrderBundle}\n\n    // storage product id\n    mapping(uint128 => bytes32) private _nameOfProducts;\n    // storage orders\n    mapping(uint128 => Order) private _orders;\n    // storage land id in order\n    mapping(uint128 => uint128) private _goodIdOfOrders;\n    // storage the order holder\n    mapping(uint128 => address) private _orderHolders;\n    // storage the processed txid\n    mapping(string => bool) private _processedTxids;\n    // storage the system fees\n    mapping(uint128 => SystemFee) private _systemFees;\n    // storage the order system fee\n    mapping(uint128 => uint128) private _orderFees;\n\n    // fire when receive token\n    event Received(\n        address operator,\n        address from,\n        uint256 tokenId,\n        bytes data,\n        uint256 gas\n    );\n    // fire when a new order is created\n    event OrderCreate(address operator, uint128 indexed orderId);\n    // fire when seller want to update order price, selling method, fee\n    event OrderUpdate(address operator, uint128 indexed orderId);\n    // fire when seller cancel order\n    event OrderCancelled(address operator, uint128 indexed orderId);\n    // fire when buyer want to buy order by ether\n    event OrderHolding(address holder, uint128 indexed orderId);\n    // fire when the operator compelte order\n    event OrderFulfilled(address operator, uint128 indexed orderId);\n    // // fire when a new system fee is created\n    event SystemFeeCreate(address operator, uint128 feeId);\n    // // fire when the owner want to withdrawal ETH or ERC20\n    // event Withdrawal(address operator, address recepient, address currency, uint256 amount);\n    // fire when the operator want to refund ETH or ERC20 to buyer\n    event Refund(\n        address receiver,\n        uint128 orderId,\n        address currency,\n        uint256 amount\n    );\n\n    constructor(string memory _name, string memory _symbol)\n        public\n        ERC721Full(_name, _symbol)\n    {\n        _addWhitelist(address(this));\n    }\n\n    /**\n     * ========================================================================================\n     * [GET] product\n     */\n    /**\n     * @dev returns the product detail\n     * @param id the product id\n     * return product detail\n     */\n    function getProductDetail(uint128 id)\n        external\n        view\n        returns (\n            uint128 productId,\n            bytes32 lname,\n            address owner\n        )\n    {\n        productId = id;\n        lname = _nameOfProducts[productId];\n        owner = ownerOf(productId);\n    }\n\n    /**\n     * @dev check the token id has already exists\n     * @param id the token id\n     * @return bool whether the call correctly returned the expected magic value\n     */\n    function hasExistentToken(uint128 id) external view returns (bool) {\n        return _exists(id);\n    }\n\n    /**\n     * ========================================================================================\n     * [SET] Product\n     */\n    /**\n     * @dev the internal method to issue new product\n     * @param _owner the owner of the product\n     * @param _id the product id\n     * @param _name the product name\n     */\n    function _issueNewProduct(\n        address _owner,\n        uint128 _id,\n        bytes32 _name\n    ) internal {\n        require(_name.length != 0, \"FTY: invalid productName\");\n\n        _nameOfProducts[_id] = _name;\n\n        _mint(_owner, _id);\n    }\n\n    /**\n     * @dev issue all lands of the specific bundle\n     * @param _owner the owner of the land\n     * @param _ids the array of land id\n     * @param _names the array of land name\n     */\n    function issueNewProducts(\n        address _owner,\n        uint128[] calldata _ids,\n        bytes32[] calldata _names\n    ) external onlyOwner whenNotPaused {\n        require(_ids.length == _names.length, \"FTY: invalid array length\");\n        for (uint256 i = 0; i != _ids.length; i++) {\n            _issueNewProduct(_owner, _ids[i], _names[i]);\n        }\n    }\n\n    /**\n     * ========================================================================================\n     * [GET] Order\n     */\n    /**\n     * @dev returns the order detail\n     * @param _orderId the order id\n     * return the product detail\n     */\n    function getOrderDetails(uint128 _orderId)\n        external\n        view\n        returns (\n            uint128 id,\n            uint128[] memory productIds,\n            address maker,\n            address taker,\n            address[] memory offeredCurrencies,\n            uint256[] memory offeredAmounts,\n            address fulfilledCurrency,\n            uint256 fulfilledAmount,\n            OrderType otype,\n            OrderStatus status\n        )\n    {\n        Order memory order = _orders[_orderId];\n        id = order.id;\n        productIds = order.productIds;\n        maker = order.maker;\n        taker = order.taker;\n        offeredCurrencies = order.offeredCurrencies;\n        offeredAmounts = order.offeredAmounts;\n        fulfilledCurrency = order.fulfilledCurrency;\n        fulfilledAmount = order.fulfilledAmount;\n        otype = order.otype;\n        status = order.status;\n    }\n\n    /**\n     * @dev returns the system fee in the order\n     * @param _orderId the order id\n     * return the system fee id\n     */\n    function getOrderSystemFeeId(uint128 _orderId)\n        external\n        view\n        returns (uint128 feeId)\n    {\n        return _orderFees[_orderId];\n    }\n\n    /**\n     * @dev check order id has already exists\n     * @param _orderId the order id\n     * @return bool whether the call correctly returned the expected magic value\n     */\n    function hasExistentOrder(uint128 _orderId) external view returns (bool) {\n        return _orders[_orderId].id != 0;\n    }\n\n    /**\n     * ========================================================================================\n     * [SET] Order\n     */\n    function _preValidateOrder(\n        uint128 _orderId,\n        uint128 _goodId,\n        address[] memory _offeredCurrencies,\n        uint256[] memory _offeredAmounts,\n        uint128 _feeId\n    ) internal view {\n        require(_orderId != 0, \"FTY: invalid orderId\");\n        require(_orders[_orderId].id == 0, \"FTY: order has already exists\");\n        require(_goodId != 0, \"FTY: invalid goodId\");\n        require(\n            _offeredCurrencies.length == _offeredAmounts.length,\n            \"FTY: invalid array length\"\n        );\n        require(_systemFees[_feeId].id != 0, \"FTY: invalid system fee\");\n    }\n\n    /**\n     * @dev the internal method to create new order\n     * @param _orderId the order id\n     * @param _productIds the array of the product id\n     * @param _offeredCurrencies the array of the offered currency\n     * @param _offeredAmounts the array of the offered amount\n     * @param _feeId the system fee id\n     */\n    function _createOrder(\n        uint128 _orderId,\n        uint128[] memory _productIds,\n        address[] memory _offeredCurrencies,\n        uint256[] memory _offeredAmounts,\n        OrderType _type,\n        uint128 _feeId\n    ) internal {\n        _orders[_orderId] = Order(\n            _orderId,\n            _productIds,\n            msg.sender,\n            address(0),\n            _offeredCurrencies,\n            _offeredAmounts,\n            address(0),\n            0,\n            _type,\n            OrderStatus.OPEN\n        );\n        _orderFees[_orderId] = _feeId;\n\n        emit OrderCreate(msg.sender, _orderId);\n    }\n\n    /**\n     * @dev using for issue and create land bundle order\n     * @param _orderId the order id\n     * @param _ids the array of the product id\n     * @param _names the array of the product name\n     * @param _offeredCurrencies the array of the offered currency\n     * @param _offeredAmounts the array of the offered amount\n     * @param _feeId the system fee id\n     */\n    function issueAndCreateManyProductsOrder(\n        uint128 _orderId,\n        uint128[] calldata _ids,\n        bytes32[] calldata _names,\n        address[] calldata _offeredCurrencies,\n        uint256[] calldata _offeredAmounts,\n        uint128 _feeId\n    ) external onlyOwner whenNotPaused {\n        for (uint256 i = 0; i != _ids.length; i++) {\n            _issueNewProduct(address(this), _ids[i], _names[i]);\n        }\n\n        _preValidateOrder(\n            _orderId,\n            _ids[0],\n            _offeredCurrencies,\n            _offeredAmounts,\n            _feeId\n        );\n\n        _createOrder(\n            _orderId,\n            _ids,\n            _offeredCurrencies,\n            _offeredAmounts,\n            OrderType.OrderBundle,\n            _feeId\n        );\n    }\n\n    /**\n     * @dev using for create a new order to sell single product\n     * @param _orderId the order id\n     * @param _productId the product id\n     * @param _offeredCurrencies the array of the offered currency\n     * @param _offeredAmounts the array of the offered amount\n     * @param _feeId the system fee id\n     */\n    function createSingleProductOrder(\n        uint128 _orderId,\n        uint128 _productId,\n        address[] calldata _offeredCurrencies,\n        uint256[] calldata _offeredAmounts,\n        uint128 _feeId\n    ) external whenNotPaused {\n        uint128[] memory _productIds = new uint128[](1);\n        _productIds[0] = _productId;\n\n        _preValidateOrder(\n            _orderId,\n            _productId,\n            _offeredCurrencies,\n            _offeredAmounts,\n            _feeId\n        );\n\n        transferFrom(msg.sender, address(this), _productId);\n\n        _createOrder(\n            _orderId,\n            _productIds,\n            _offeredCurrencies,\n            _offeredAmounts,\n            OrderType.OrderIndividual,\n            _feeId\n        );\n    }\n\n    /**\n     * @dev using for update order price, selling method, fee\n     * @param _orderId the order id\n     * @param _offeredCurrencies the array of the offered currency\n     * @param _offeredAmounts the array of the offered amount\n     * @param _feeId the system fee id\n     */\n    function updateOrder(\n        uint128 _orderId,\n        address[] calldata _offeredCurrencies,\n        uint256[] calldata _offeredAmounts,\n        uint128 _feeId\n    ) external whenNotPaused {\n        Order storage order = _orders[_orderId];\n        require(order.id != 0, \"FTY: caller query nonexistent order\");\n        require(msg.sender == order.maker, \"FTY: only maker can update order\");\n        require(\n            order.status == OrderStatus.OPEN,\n            \"FTY: order not allow to update\"\n        );\n        require(_systemFees[_feeId].id != 0, \"FTY: invalid system fee\");\n        require(\n            _offeredCurrencies.length == _offeredAmounts.length,\n            \"FTY: invalid array length\"\n        );\n\n        order.offeredCurrencies = _offeredCurrencies;\n        order.offeredAmounts = _offeredAmounts;\n        _orderFees[_orderId] = _feeId;\n\n        emit OrderUpdate(msg.sender, order.id);\n    }\n\n    /**\n     * @dev using for cancel order\n     * @param _orderId the order id\n     */\n    function cancelOrder(uint128 _orderId) external whenNotPaused {\n        Order storage order = _orders[_orderId];\n        require(order.id != 0, \"FTY: caller query nonexistent order\");\n        require(msg.sender == order.maker, \"FTY: only maker can cancel order\");\n        require(\n            order.status == OrderStatus.OPEN,\n            \"FTY: order not allow to cancel\"\n        );\n\n        if (order.otype == OrderType.OrderIndividual) {\n            IERC721(address(this)).safeTransferFrom(\n                address(this),\n                order.maker,\n                order.productIds[0]\n            );\n        } else if (order.otype == OrderType.OrderBundle) {\n            _batchSafeTransferFrom(\n                address(this),\n                address(this),\n                order.maker,\n                order.productIds\n            );\n        }\n        order.status = OrderStatus.CANCELLED;\n\n        emit OrderCancelled(msg.sender, order.id);\n    }\n\n    /**\n     * @dev buyer can take order by staking ether\n     * @param _orderId the order id\n     */\n    function takeOrderByEther(uint128 _orderId) external payable whenNotPaused {\n        Order storage order = _orders[_orderId];\n        require(order.id != 0, \"FTY: caller query nonexistent order\");\n        require(order.maker != msg.sender, \"FTY: you are owner\");\n        if (order.status == OrderStatus.OPEN) {\n            uint256 _amount = 0;\n            for (uint256 i = 0; i != order.offeredCurrencies.length; i++) {\n                if (order.offeredCurrencies[i] == address(0)) {\n                    _amount = order.offeredAmounts[i];\n                    break;\n                }\n            }\n            require(\n                _amount != 0 && msg.value == _amount,\n                \"FTY: invalid amount\"\n            );\n\n            order.status = OrderStatus.HOLDING;\n            _orderHolders[_orderId] = msg.sender;\n\n            emit OrderHolding(msg.sender, order.id);\n        } else {\n            // refund ether to buyer\n            msg.sender.transfer(msg.value);\n            emit Refund(msg.sender, _orderId, address(0), msg.value);\n        }\n    }\n\n    /**\n     * @dev using for complete the order by the system operator\n     * @param _orderId the order id\n     * @param _taker the buyer address\n     * @param _currency the payable currency\n     * @param _amount the payable amount\n     * @param _txid the taken txid\n     */\n    function completeOrder(\n        uint128 _orderId,\n        address _taker,\n        address _currency,\n        uint256 _amount,\n        string calldata _txid\n    ) external whenNotPaused {\n        require(isOperator(msg.sender), \"FTY: caller is not operator\");\n        require(_taker != address(0), \"FTY: invalid address\");\n        if (_orderHolders[_orderId] != address(0)) {\n            require(_taker == _orderHolders[_orderId], \"FTY: invalid taker\");\n        }\n        Order storage order = _orders[_orderId];\n        require(order.id != 0, \"FTY: caller query nonexistent order\");\n        require(order.maker != _taker, \"FTY: you are owner\");\n        require(\n            order.status == OrderStatus.OPEN ||\n                order.status == OrderStatus.HOLDING,\n            \"FTY: cannot complete this order\"\n        );\n        require(!_processedTxids[_txid], \"FTY: txid has processed\");\n\n        uint256 amount = 0;\n        for (uint256 i = 0; i != order.offeredCurrencies.length; i++) {\n            if (_currency == order.offeredCurrencies[i]) {\n                amount = order.offeredAmounts[i];\n                break;\n            }\n        }\n        require(amount != 0 && amount == _amount, \"FTY: invalid amount\");\n\n        uint256 fee = 0;\n        if (order.maker != owner()) {\n            SystemFee memory sFee = _systemFees[_orderFees[_orderId]];\n            fee = _amount.mul(sFee.fastyFee).div(SYSTEM_FEE_COEFF);\n        }\n\n        // The transfer amount equals the offer amount sub the fasty fee\n        if (_currency == address(0)) {\n            // Transfer ether to the seller\n            order.maker.toPayable().transfer(amount.sub(fee));\n        } else {\n            // Transfer erc20 token to the seller\n            IERC20(_currency).safeTransfer(order.maker, amount.sub(fee));\n        }\n\n        // Transfer the land to buyer\n        if (order.otype == OrderType.OrderIndividual) {\n            IERC721(address(this)).safeTransferFrom(\n                address(this),\n                _taker,\n                order.productIds[0]\n            );\n        } else if (order.otype == OrderType.OrderBundle) {\n            _batchSafeTransferFrom(\n                address(this),\n                address(this),\n                _taker,\n                order.productIds\n            );\n        }\n\n        order.taker = _taker;\n        order.fulfilledCurrency = _currency;\n        order.fulfilledAmount = amount;\n        order.status = OrderStatus.FULFILLED;\n\n        _orderHolders[_orderId] = _taker;\n        _processedTxids[_txid] = true;\n        emit OrderFulfilled(msg.sender, order.id);\n    }\n\n    /**\n     * ========================================================================================\n     * [GET] System Fee\n     * @dev returns the system fee\n     * @param _feeId the system fee id\n     * return the system fee detail\n     */\n    function getSystemFee(uint128 _feeId)\n        external\n        view\n        returns (uint128 feeId, uint256 fastyFee)\n    {\n        feeId = _systemFees[_feeId].id;\n        fastyFee = _systemFees[_feeId].fastyFee;\n    }\n\n    /**\n     * ========================================================================================\n     * [SET] System Fee\n     */\n    /**\n     * @dev using for set a new system fee\n     * @param _feeId the system fee id\n     * @param _fastyFee the fasty fee percentage\n     */\n    function setNewSystemFee(uint128 _feeId, uint256 _fastyFee)\n        external\n        onlyOwner\n        whenNotPaused\n    {\n        require(_feeId != 0, \"FTY: invalid feeId\");\n        require(_systemFees[_feeId].id == 0, \"FTY: fee has already exists\");\n\n        _systemFees[_feeId] = SystemFee(_feeId, _fastyFee);\n        emit SystemFeeCreate(msg.sender, _feeId);\n    }\n\n    /**\n     * ========================================================================================\n     * [SET] Withdrawal & Refund\n     */\n    /**\n     * @dev the internal method used to withdrawal ETH or ERC20\n     * @param _recepient the receiver address\n     * @param _currency the withdrawal currency (can be ETH or ERC20)\n     * @param _amount the withdrawl amount\n     */\n    function _withdrawal(\n        address _recepient,\n        address _currency,\n        uint256 _amount\n    ) internal {\n        require(_recepient != address(0), \"FTY: invalid address\");\n        require(_amount != 0, \"FTY: invalid amount\");\n        if (_currency == address(0)) {\n            require(\n                address(this).balance >= _amount,\n                \"FTY: balance not enough\"\n            );\n            _recepient.toPayable().transfer(_amount);\n        } else {\n            uint256 balance = IERC20(_currency).balanceOf(address(this));\n            require(balance >= _amount, \"FTY: balance not enough\");\n            IERC20(_currency).safeTransfer(_recepient, _amount);\n        }\n    }\n\n    /**\n     * @dev the operator can use to refund ETH or ERC20 to buyer\n     * @param _orderId the refund order id\n     * @param _recepient the receiver address\n     * @param _currency the refund currency (can be ETH or ERC20)\n     * @param _amount the refund amount\n     */\n    function refund(\n        uint128 _orderId,\n        address _recepient,\n        address _currency,\n        uint256 _amount\n    ) external whenNotPaused {\n        require(isOperator(msg.sender), \"FTY: caller is not operator\");\n        require(\n            _orders[_orderId].id != 0,\n            \"FTY: caller query nonexistent order\"\n        );\n        _withdrawal(_recepient, _currency, _amount);\n        emit Refund(_recepient, _orderId, _currency, _amount);\n    }\n\n    function _batchSafeTransferFrom(\n        address _token,\n        address _from,\n        address _recepient,\n        uint128[] memory _productIds\n    ) internal {\n        uint256 lengthOfProducts = _productIds.length;\n        for (uint256 i = 0; i != lengthOfProducts; i++) {\n            if (_token != address(0)) {\n                IERC721(_token).safeTransferFrom(\n                    _from,\n                    _recepient,\n                    _productIds[i]\n                );\n            } else {\n                safeTransferFrom(_from, _recepient, _productIds[i]);\n            }\n        }\n    }\n\n    /**\n     * ========================================================================================\n     * [SET] Override ERC721Metadata\n     */\n    function setTokenURI(uint256 tokenId, string calldata _tokenURI)\n        external\n        onlyOwner\n    {\n        super._setTokenURI(tokenId, _tokenURI);\n    }\n\n    function setBaseURI(string calldata baseURI) external onlyOwner {\n        super._setBaseURI(baseURI);\n    }\n}\n",
  "sourcePath": "/home/hanhnt/Documents/do_an/fasty-smart-contract/contracts/FastyToken.sol",
  "compiler": {
    "name": "solc",
    "version": "0.5.17+commit.d19bba13.Emscripten.clang"
  },
  "schemaVersion": "3.3.2",
  "updatedAt": "2020-12-21T06:56:38.048Z",
  "networkType": "ethereum",
  "devdoc": {
    "methods": {
      "balanceOf(address)": {
        "details": "Gets the balance of the specified address.",
        "params": {
          "owner": "address to query the balance of"
        },
        "return": "uint256 representing the amount owned by the passed address"
      },
      "baseURI()": {
        "details": "Returns the base URI set via {_setBaseURI}. This will be automatically added as a preffix in {tokenURI} to each token's URI, when they are non-empty.     * _Available since v2.5.0._"
      },
      "cancelOrder(uint128)": {
        "details": "using for cancel order",
        "params": {
          "_orderId": "the order id"
        }
      },
      "completeOrder(uint128,address,address,uint256,string)": {
        "details": "using for complete the order by the system operator",
        "params": {
          "_amount": "the payable amount",
          "_currency": "the payable currency",
          "_orderId": "the order id",
          "_taker": "the buyer address",
          "_txid": "the taken txid"
        }
      },
      "createSingleProductOrder(uint128,uint128,address[],uint256[],uint128)": {
        "details": "using for create a new order to sell single product",
        "params": {
          "_feeId": "the system fee id",
          "_offeredAmounts": "the array of the offered amount",
          "_offeredCurrencies": "the array of the offered currency",
          "_orderId": "the order id",
          "_productId": "the product id"
        }
      },
      "getApproved(uint256)": {
        "details": "Gets the approved address for a token ID, or zero if no address set Reverts if the token ID does not exist.",
        "params": {
          "tokenId": "uint256 ID of the token to query the approval of"
        },
        "return": "address currently approved for the given token ID"
      },
      "getOrderDetails(uint128)": {
        "details": "returns the order detail",
        "params": {
          "_orderId": "the order id return the product detail"
        }
      },
      "getOrderSystemFeeId(uint128)": {
        "details": "returns the system fee in the order",
        "params": {
          "_orderId": "the order id return the system fee id"
        }
      },
      "getProductDetail(uint128)": {
        "details": "returns the product detail",
        "params": {
          "id": "the product id return product detail"
        }
      },
      "getSystemFee(uint128)": {
        "details": "returns the system fee",
        "params": {
          "_feeId": "the system fee id return the system fee detail"
        }
      },
      "hasExistentOrder(uint128)": {
        "details": "check order id has already exists",
        "params": {
          "_orderId": "the order id"
        },
        "return": "bool whether the call correctly returned the expected magic value"
      },
      "hasExistentToken(uint128)": {
        "details": "check the token id has already exists",
        "params": {
          "id": "the token id"
        },
        "return": "bool whether the call correctly returned the expected magic value"
      },
      "isApprovedForAll(address,address)": {
        "details": "Tells whether an operator is approved by a given owner.",
        "params": {
          "operator": "operator address which you want to query the approval of",
          "owner": "owner address which you want to query the approval of"
        },
        "return": "bool whether the given operator is approved by the given owner"
      },
      "isOwner()": {
        "details": "Returns true if the caller is the current owner."
      },
      "issueAndCreateManyProductsOrder(uint128,uint128[],bytes32[],address[],uint256[],uint128)": {
        "details": "using for issue and create land bundle order",
        "params": {
          "_feeId": "the system fee id",
          "_ids": "the array of the product id",
          "_names": "the array of the product name",
          "_offeredAmounts": "the array of the offered amount",
          "_offeredCurrencies": "the array of the offered currency",
          "_orderId": "the order id"
        }
      },
      "issueNewProducts(address,uint128[],bytes32[])": {
        "details": "issue all lands of the specific bundle",
        "params": {
          "_ids": "the array of land id",
          "_names": "the array of land name",
          "_owner": "the owner of the land"
        }
      },
      "owner()": {
        "details": "Returns the address of the current owner."
      },
      "ownerOf(uint256)": {
        "details": "Gets the owner of the specified token ID.",
        "params": {
          "tokenId": "uint256 ID of the token to query the owner of"
        },
        "return": "address currently marked as the owner of the given token ID"
      },
      "pause()": {
        "details": "Called by a pauser to pause, triggers stopped state."
      },
      "paused()": {
        "details": "Returns true if the contract is paused, and false otherwise."
      },
      "refund(uint128,address,address,uint256)": {
        "details": "the operator can use to refund ETH or ERC20 to buyer",
        "params": {
          "_amount": "the refund amount",
          "_currency": "the refund currency (can be ETH or ERC20)",
          "_orderId": "the refund order id",
          "_recepient": "the receiver address"
        }
      },
      "renounceOwnership()": {
        "details": "Leaves the contract without owner. It will not be possible to call `onlyOwner` functions anymore. Can only be called by the current owner.     * NOTE: Renouncing ownership will leave the contract without an owner, thereby removing any functionality that is only available to the owner."
      },
      "safeTransferFrom(address,address,uint256)": {
        "details": "Safely transfers the ownership of a given token ID to another address If the target address is a contract, it must implement {IERC721Receiver-onERC721Received}, which is called upon a safe transfer, and return the magic value `bytes4(keccak256(\"onERC721Received(address,address,uint256,bytes)\"))`; otherwise, the transfer is reverted. Requires the msg.sender to be the owner, approved, or operator",
        "params": {
          "from": "current owner of the token",
          "to": "address to receive the ownership of the given token ID",
          "tokenId": "uint256 ID of the token to be transferred"
        }
      },
      "safeTransferFrom(address,address,uint256,bytes)": {
        "details": "Safely transfers the ownership of a given token ID to another address If the target address is a contract, it must implement {IERC721Receiver-onERC721Received}, which is called upon a safe transfer, and return the magic value `bytes4(keccak256(\"onERC721Received(address,address,uint256,bytes)\"))`; otherwise, the transfer is reverted. Requires the msg.sender to be the owner, approved, or operator",
        "params": {
          "_data": "bytes data to send along with a safe transfer check",
          "from": "current owner of the token",
          "to": "address to receive the ownership of the given token ID",
          "tokenId": "uint256 ID of the token to be transferred"
        }
      },
      "setNewSystemFee(uint128,uint256)": {
        "details": "using for set a new system fee",
        "params": {
          "_fastyFee": "the fasty fee percentage",
          "_feeId": "the system fee id"
        }
      },
      "supportsInterface(bytes4)": {
        "details": "See {IERC165-supportsInterface}.     * Time complexity O(1), guaranteed to always use less than 30 000 gas."
      },
      "takeOrderByEther(uint128)": {
        "details": "buyer can take order by staking ether",
        "params": {
          "_orderId": "the order id"
        }
      },
      "tokenByIndex(uint256)": {
        "details": "Gets the token ID at a given index of all the tokens in this contract Reverts if the index is greater or equal to the total number of tokens.",
        "params": {
          "index": "uint256 representing the index to be accessed of the tokens list"
        },
        "return": "uint256 token ID at the given index of the tokens list"
      },
      "tokenURI(uint256)": {
        "details": "Returns the URI for a given token ID. May return an empty string.     * If the token's URI is non-empty and a base URI was set (via {_setBaseURI}), it will be added to the token ID's URI as a prefix.     * Reverts if the token ID does not exist."
      },
      "totalSupply()": {
        "details": "Gets the total amount of tokens stored by the contract.",
        "return": "uint256 representing the total amount of tokens"
      },
      "transferFrom(address,address,uint256)": {
        "details": "Transfers the ownership of a given token ID to another address. Usage of this method is discouraged, use {safeTransferFrom} whenever possible. Requires the msg.sender to be the owner, approved, or operator.",
        "params": {
          "from": "current owner of the token",
          "to": "address to receive the ownership of the given token ID",
          "tokenId": "uint256 ID of the token to be transferred"
        }
      },
      "transferOwnership(address)": {
        "details": "Transfers ownership of the contract to a new account (`newOwner`). Can only be called by the current owner."
      },
      "unpause()": {
        "details": "Called by a pauser to unpause, returns to normal state."
      },
      "updateOrder(uint128,address[],uint256[],uint128)": {
        "details": "using for update order price, selling method, fee",
        "params": {
          "_feeId": "the system fee id",
          "_offeredAmounts": "the array of the offered amount",
          "_offeredCurrencies": "the array of the offered currency",
          "_orderId": "the order id"
        }
      }
    }
  },
  "userdoc": {
    "methods": {
      "getSystemFee(uint128)": {
        "notice": "======================================================================================== [GET] System Fee"
      },
      "setTokenURI(uint256,string)": {
        "notice": "======================================================================================== [SET] Override ERC721Metadata"
      }
    }
  }
}